:400000000040002011000000C9320000C932000008B503F079F9C04608B51222244B1A60302003F093FB234A234B1A6080225200224B1A60224B234A1A60B0210901224ABB
:400040001160224A1A6080218900214A1160214A1A60A021C900204A1160204A1A60882189011F4A11601F4A1A60822212061E4B1A608022D2021D4B1A6040221C4B1A60CB
:4000800043221C4B1A6041221B4B1A6042221B4B1A6044221A4B1A6007201A4903F0ACFA072003F093FA0022174B1A6008BDC046300010400600008004010B400003014001
:4000C0000000014040FF00800C03014043FF00800403014041FF00800803014042FF00801003014044FF008008010B4000010B404C01014028010140140101400C01014086
:4001000008010140A53800000C020B4070B572B60122554B1A700024544D0CE063001B195B00EB1899881A8858880004104303F057F90134E4B2022CF0D900244B4D1435FB
:4001400010E0A3001B195B00EB181A885888000410439A88D988090411431A8903F046F90134E4B2002CECD04049081C2030403103F01AF9802252003D4B1A8001203D4BE2
:40018000187007213C4B19603C4A3D4B1A60F02212063C4B1A603C4A3C4B1A6099223C4B1A603C4A3C4B1A6099231B043B4A1360802424063A4A14603A4A13608024A40238
:4001C000394A1460394A1360394A13600223394A1360394A1360394A157802242C431470374C25783C26B543142635432570157816242C431470C124324A1460B024E403D7
:40020000314A146080242402304A1460304A10600D20304A10603048304A10608020304A106047202F4A1060E02080032E4A10602E4A116003212E4A11602E492E4A116019
:400240002E4A136031212E4A11602E4A136022212D4A11602D492E4A11602E4A1360FFF7DBFE03F0D7F870BD1C700F40286E000000600F4002600F40000002400303000021
:400280000001024000020240EEEE00000003024000040240FF0F00000006024000500F4004500F4010500F4018500F4020500F4030500F402000104000800F4000700F40C6
:4002C00001700F4000000440080004400C00044018000440000104408E050000080104401801044000020440080204401802044000030440A40D00000803044000040440FF
:4003000008040440180404400006044071000300080604401806044010B5064C2378002B07D1054B002B02D0044800E000BF0123237010BDB0010020000000006066000093
:4003400008B5084B002B03D00748084900E000BF07480368002B03D0064B002B00D0984708BDC0460000000060660000B4010020C80000200000000008B503F005FE08BD87
:4003800010B503F0B1FD012403F0A2FD0442FBD003F0BCFD0028FBD003F0B2FD10BDC046F8B5051C002408E02B681B684F1C0978281C98472418321C391C561E002AF3D1BB
:4003C000201CF8BD38B5051C0C1E09D0081C05F0EBFC021C2B685B68281C211C984700E0002038BD08B503685B6802490222984708BDC046806A0000014B18687047C046BB
:40040000B405002010B5041C002003F0E3FD201CFFF7B6FF012003F0DDFD10BD08B5FF20FFF7AEFF08BDC04608B5012003F08CFA08BDC04608B5002003F086FA08BDC046E2
:4004400038B5041C4379002B03D10DE0FFF7E6FF00E0064DE3885A1CE280AB42F6D9201CFFF7E2FF0023637138BDC04601020000062903D916230371002000E00120704722
:4004800038B50D1CFFF7B8FF0404240CFFF7C6FFFF2808D0FFF7B0FF0004000C001BA842F4DB002000E0012038BDC046F8B5051C0F1C161CFFF7C4FF281CFFF7BBFF281CC6
:4004C00096214900FFF7DCFF40203843FFF79AFF182407E060B2331CC340D8B2FFF792FF083CE4B263B2002BF4DA002F01D0FF2000E09520082F00D18720FFF783FF002442
:400500000026012701E00134E4B2FFF787FF021C6872030603D5FF2C03D1331C02E0331C00E03B1C002BEED1101CF8BDF0B5474680B4041C884600238372037243710371E2
:40054000FFF75AFF86B2201CFFF76EFFFFF714FF002504E0FF20FFF755FF0135EDB2092DF8D9201CFFF766FFFA25ED0008E0FFF743FF801B80B2A84202D90123237168E0A9
:40058000201C00210022FFF791FF60720128EED1201C0821D5225200FFF788FF430708D50123A37210E0FFF739FF60720135EDB200E00025032DF6D9637AAA2B02D002237F
:4005C000237146E00223A372A37A022B02D18025ED050AE0002508E0FFF70EFF801B80B2B84204D90823237133E0FA23DF00201C37210022FFF75AFF201C29212A1CFFF720
:4006000055FF60720028E7D1A37A022B19D1201C3A210022FFF74AFF002802D00623237117E0FFF7FBFEC0231840C02801D10323A372002503E0FFF7F1FE0135EDB2022DCA
:40064000F9D9201CFFF7F0FE201C4146FFF710FF03E0201CFFF7E8FE002004BC9046F0BD70B5041CFFF7C8FE0604360C96256D0009E0FFF7C1FE03041B0C9B1BAB4202DD9F
:400680000F23237108E0FFF7C9FE6072FF28F0D0FE2806D00D232371201CFFF7C5FE002000E0012070BDC046F8B5041C0F1C151C1E1E4DD09B1880229200934243DC4379F4
:4006C000002B05D003688B4202D1C388AB421DD92760A37A032B00D07F02201C11213A1CFFF7E4FE002802D0032323712BE0201CFFF7B6FF002826D00023E38001236371C0
:4007000004E0FFF78BFEE3880133E380E388AB42F7D3002506E0069B5F19FFF77FFE38700135ADB2B542F6D3E388F618B6B2E680237A002B02D0084B9E420BD9201CFFF774
:400740007FFE012007E0201CFFF76EFE002002E0012000E00120F8BDFF01000000B583B00092002280239B00FFF79EFF03B000BDF8B5071C161C081CFFF744FE00240F4DC2
:4007800004E0305DFFF73EFE0134A4B2AC42F8D9FF20FFF737FEFF20FFF734FEFFF73EFE78721F231840052806D011233B71381CFFF73AFE002000E00120F8BDFF010000CA
:4007C00038B5041C0B1C151C002902D11223037138E0827A032A00D04B02201C18211A1CFFF764FE002802D0042323712AE0201CFE212A1CFFF7BCFF002823D0201C96216F
:400800008900FFF73DFE002802D11523237119E0201C0D210022FFF749FE002805D1FFF7FDFD002803D1002302E0012300E00123002B02D01423237104E0201CFFF7F4FD8F
:40084000012003E0201CFFF7EFFD002038BDC04610B5041C021C0C32406A012100F0A4FD00280CD0236A002B08D1E3682362227A80235B4213432372012000E0012010BD82
:4008800070B5061CFFF7E4FF00281BD0736AF568023D1A7C95405A6955191C7907E06319581E00F0B7FC00280CD0013CE4B2002CF5D1736A1A7C80239B009340F269D3184C
:4008C000F361012070BDC04610B5041C406900F081FC002804D0207E4001024BC01800E0002010BDDC010020F0B55F4656464D464446F0B485B00023202402E05A1CCC54D0
:40090000D3B20A2BFAD900229446072398466D460826B2460A27B9462DE02E2C05D140460A2833D0D446C84624E01C4A2B1CC1CAC1C312681A606B4602E0031CA24217D0CC
:40094000581C1A78002AF8D1C44511D8202C0FD97E2C0DD863460133DBB262468F18221C613A192A01D8203CE4B23C709C4601E000200CE05846431C9B460478002CCCD18B
:4009800008782038431E9841C0B200E0002005B03CBC90469946A246AB46F0BDA86A000038B5041C0D1C407A002822D12023CB5C102B07D102236372002323624B8C5B015C
:4009C000E3610CE0202B15D103236372496A2162221C1C32281C00F075FC00280AD06562012323720023E360236163612376012000E0002038BDC046F0B55F4656464D46D6
:400A00004446F0B485B0051C0C1C0392437A002B04D0037AD80703D4012302E0012300E00023002B7AD1EA692B69D11A0398884201D98BB20393039F404A9146404B9B4690
:400A40004048824665E02B69DA05D20D90466A7A022A04D16A6A526A5B0A99181EE0686A5A0A0679013E3240D6B24246002A0DD1002E0BD1002B02D12B6AEB6006E02A1C9E
:400A80000C32E96800F0E6FB002849D06A6A5369E9680239127C91405918711880239B0040461B1A9F4201DD9EB200E03E1C2B7A5A0603D480239B009E4205D14B461B68FA
:400AC000994203D1002302E0002300E00123002B0AD05246106800944246331CFFF7E4FD00281FD0A4190FE0081C002100F072FB002819D043465B44991903E01A7822706D
:400B0000013301348B42F9D12A6993192B61BF1BBFB2002F97D1039B98B206E00A4804E0094802E0084800E0074800B205B03CBC90469946A246AB46F0BDC046CC000020C6
:400B4000DC010020D8010020FFFF000030B583B0041C437A012B19D90369D805050F201C694607310122FFF747FF012803D16B4607331B7800E0084B1BB2002B08DB23697A
:400B80001F3323616801054BC01802E0002000E0002003B030BDC046FFFF0000DC010020F8B5041C0F1C437A002B04D0C069884203D2012202E0012200E00022002A2ED15C
:400BC000022B02D1276101202AE0002F04D10023E3602361012023E02269511E606A037C0933D940781ED840031E8B4201D3002A02D1226AE2600AE0431A08E0606AE1681B
:400C0000321C00F027FB2B1C002802D108E0261C0C365D1E002BF1D12761012000E00020F8BDC04638B5041C407A002830D0237A7F2B29D9201C0121FFF746FE051E26D0F1
:400C4000637A012B07D8E36903771A0A42771A0C82771B0EC377238CAB761B0AEB76638C2B751B0A6B750B4B1B68002B08D0281C1830291C163198472A7E6B7EAA74EB749C
:400C8000237A7F221340237200F07AFA00E0002038BDC046CC01002010B5041CFFF7C2FF002802D000236372012010BD70B582B0041C0D1C437A012B04D1037A9A0703D4F3
:400CC000012302E0012300E00023002B48D1E369AB4247D3002B47D02669AE4200D92E1C201C291CFFF75CFF00283ED0002D08D1606A216A00F0C4FB002836D00023236264
:400D00001EE0606AE16801AA00F0A4FA002815D0606A01992023C35C102B01D1144B00E0144B99420CD200F0ABFB002806D0606AE168114A00F0F0FA002801D1002014E048
:400D4000E561227A80235B4213432372201CFFF769FF002809D0201C311CFFF721FF04E0002002E0002000E0012002B070BDC046F8FF0000F8FFFF0FFFFFFF0F38B5041C2B
:400D8000151C4A01244BD318DA7A1120104202D042222A4239D12176204A126862611A7D597D0902114309042162987EDA7E1202024311432162DA7A182002400DD1197F5E
:400DC0005A7F12020A43997F09040A43DB7F1B061343E361012363720AE0102A17D1221C1C32606A00F06EFA002813D0042363720F232B4023720023E36023616A0608D50F
:400E0000201C0021FFF752FF04E0002002E0002000E0012038BDC046DC010020CC000020F0B55F4656464D464446F0B487B0061C0C1C0193477A002F00D094E0101C03A95B
:400E4000FFF752FD002800D18FE0626A72620023E360236199460F229046484B9B460122924629E06D0943461D40201CFFF76EFE011E7BD00378002B01D0E52B0BD14A4686
:400E8000002A04D135765B461B687361D1460B78002B11D114E003A80B2204F03DFE00280AD13023019A1340302B5FD0301C291CFFF764FF071C59E02569E3699D42D1D37D
:400EC0001223019A1340122B50D14B46002B06D0301C0121FFF7F8FC041E0BD146E0637A022B43D0201CFFF7CBFC071E3ED000233376234C201C0021202204F025FE201CED
:400F000003A90B2204F017FE1E4B1B68002B05D0201C1030211C0E31984707E021232374282363740023A3730823E373227C637C1B021343FF221A40A2741B0AE3742276D9
:400F40006376A27BE37B1B021343A3751B0AE37500F016F9071E09D0317E301C019AFFF70DFF071C02E0002700E0071C381C07B03CBC90469946A246AB46F0BDCC00002027
:400F8000DC010020CC010020F0B55F4656464D464446F0B485B0051C0C1C0192437A012B04D1037A990703D4012302E0012300E00023002B00D0BEE02B7A5A0703D5E969E7
:400FC0002B698B4205D1019F60498A46604A93468DE0281CFFF7E4FD002800D1ABE0F2E7686A2B69590A0279013A0A40D2B29146DB05DB0D9846002A27D1002B25D1E968DB
:4010000000290AD12B6A002B05D1281CFFF720FC00281AD18FE0EB6017E003AA00F01AF9002800D18AE0039B2022696A8A5C102A01D1484A00E0484A934205D3281CFFF759
:4010400007FC002801D176E0EB608026B6004246B61AB6B2BE4200D93E1C6B6A5A69E96802391B7C99405318994480239B009E4213D1374B1B684B4503D101225242344B06
:401080001A60364B18684946221CFFF799FB002851D080239B00E41824E04146002911D12A69EB699A420DD300F06AF8002842D049465A4611602A4B1A7801231343284984
:4010C0000B7005E04846012100F084F8002832D043465344991903E022781A70013301348B42F9D1BF1BBFB22B699E192E61002F00D075E72B69E9698B4206D9EB612A7A6F
:4011000080235B4213432B720BE0164B1B68002B07D0019A002A04D02A7A80235B4213432B722B7A190704D5281CFFF77BFD002801D0019802E001236B60002005B03CBCBB
:4011400090469946A246AB46F0BDC046DC010020CC000020F8FF0000F8FFFF0FD8010020D4010020CC01002000B583B06B46D9710733191C0122FFF707FF03B000BDC04687
:4011800008B5114B1B78002B1BD00F4A50680F4B19680832FFF714FB002813D00C4B9968002909D0084A50680832FFF709FB002808D00022064B9A600022034B1A70012017
:4011C00000E0012008BDC046D4010020CC000020D403002038B5041C0D1C0C4B1B6883420DD0FFF7CDFF00280ED0094A50680832211CFFF7B3FA002806D0044B1C60044B94
:401200001A7815431D70012038BDC046CC000020D401002070B5061CFFF7B2FF002812D000230949094D002403E0EA18147201339BB28B42F9D9064B1E60044B19780122F6
:401240000A431A70012070BDFF010000D4010020CC00002070B5041C0D1C161CC36801338B4229D3C3692022825C102A01D1080A00E0C809C018114B1B68984204D00021FF
:40128000FFF7A8FF002818D02023E35C102B08D1FF231D406D000A4B5D192B89336001200BE07F231D40AD00054B5D19AB681B011B093360012000E0002070BDCC0000204F
:4012C000D4010020F0B5474680B482B0041C0191904600258027BF002026201C019901AAFFF7B8FF00280FD0237C3A1C9A40AD18019BA25D102A01D1054A00E0054A934245
:40130000EBD343461D60012002B004BC9046F0BDF8FF0000F8FFFF0FF8B5041C0D1C171C012935D9C36801338B4233D3C3692022825C102A01D10E0A00E0CE09F618174BAD
:401340001B689E4205D0301C0021FFF743FF002823D02023E35C102B06D1FF231D406D000F4B5D192F8105E07F231D40AD000C4B5D19AF600A4B197801220A431A70237E87
:40138000012B09D9A368F618064B9E60012004E0002002E0002000E00120F8BDCC000020D4010020D4030020F0B55F4656464D464446F0B485B0061C8A4693461768002FAD
:4013C00003D001370023019306E007680B1C013B5A425341DBB20193F3689946012399443C1C002502239846F368AB4216D94C4501D944464746301C211C03AAFFF72AFF59
:4014000000280BD0039B002B01D0671C03E0E31B0133534504D001350134E5E7002026E0301C211C154AFFF777FF002809D11EE0651E301C291C221CFFF76EFF002816D097
:401440002C1CBC42F4D85B461968002905D0301C3A1CFFF761FF002809D05B461F60019B002B03D001373760012000E0012005B03CBC90469946A246AB46F0BDFFFFFF0FA2
:40148000F0B583B0051C0C1C0223036020260E4F281C211C01AAFFF7DDFE002811D0281C211C0022FFF738FF00280AD0019CAB5D102B01D1054B00E03B1C9C42E8D3012015
:4014C00000E0002003B0F0BDF8FFFF0FF8FF0000F8B5051C141C534B59602DD0042A00D992E000200021FFF775FE031E00D196E024014C4B1C19B134FF34A21DA3797F212F
:401500000B4000D082E0A07CE17C09020143207D00040143607D00060143632900D87EE0A17BE47B24020C43917A09040C43D27A1206144301D172E00024201C0021FFF7EB
:4015400049FE031E6BD0374BD97C1A7D12020A4380239B009A425BD1324B1B7E002B5ED0304AD28A002A55D02E4A517D002953D02B76297100232B74012003E05A1C2A7478
:40158000072B4BD82B7C1E1C021C9A409142F5D1244BD88B002800D1D86AA860214BDA8A1219EA619F693902090C8FB26984197E4143511869627A011B48121852128A1826
:4015C0006A61D97E1B7F1B020B4301D1154B9B6AA21A9B18F3401E1CEB60144B9E4204D80C222023EA54012319E0114B9E4204D810222023EA54012311E00A4B5B6B6B62B7
:401600002023EB5401230AE0002308E0002306E0002304E0002302E00B1C00E00023181CF8BDC046D4010020FF010000F40F0000F4FF000010B582B06B46D9710733026860
:401640005468191C0122A04702B010BD10B5041C036A002B03D10123436000200CE00020586092B2206AFFF78FFC236A5B68002B02D001236360002010BDC04600B583B096
:40168000006A00280CD0694607310122FFF7B4F9012802D16B46D87900E0034800B201E00120404203B000BDFFFF000030B583B0041C006A002814D0694607310122FFF794
:4016C0009BF9012802D16B46DD7900E0064D2DB26B1C04D0206A01690139FFF761FA281C00E0002003B030BDFFFF000008B5006A002801D0FFF796FA08BDC04670B5041CCF
:401700000E1C151C00234360FA239B0083600B4B08330360282004F0EBF9206200280BD0311C282204F007FA201C1030291C0C2204F041FB00232377201C70BDC86A000051
:4017400000234360FA2292008260034A08320260036203747047C046C86A000008B5006A002802D0FFF748F900E0002008BDC046036A002B01D0186901E001204042704717
:40178000036A002B01D0D86900E000207047C04638B5041C036A002B0BD0FFF7F1FF051C201CFFF7E5FF281A034B984202D9181C00E0002038BDC046FF7F000010B5041C4E
:4017C000006A002806D0FFF767FA206A04F09AF90023236210BDC046036A002B04D0587A431E9841C0B200E000207047012811D1094B99420ED1094B00221A715A711A728C
:401800009A720221D9602C215A549A63044959633D215A547047C046FFFF0000E0030020A06A000010B58AB0041C0A1C002301930A49009169464B726846211C0123FFF71A
:40184000EFFA041C601E8441E4B2002C02D06846FFF722FA201C0AB010BDC046A06A000030B50D68435D2F2B00D10135002302E00135D45401330B2B04DC445D2F2C01D020
:40188000002CF5D1D31800221A70435D2F2B00D101350D60405D431E9841C0B230BDC046F0B55F4656464D464446F0B49BB083460E1C9246994606AD00236B6026490691B2
:4018C0006B7210AA1193109153720193341C0123984604E0231C00E010AB2C1C1D1C584601A902AAFFF7BCFF071C43465840C2B2201C02A94B46D047002806D1B4421ED053
:40190000201CFFF7C9F900201EE0002F10D0281C211C02AA0123FFF783FA071CB44202D0201CFFF7B9F9002F0BD0B442D2D1D3E7B44208D0201CFFF7AFF9012004E00020C9
:4019400002E0002000E001201BB03CBC90469946A246AB46F0BDC046A06A000038B5041C0121FEF7E3FD002825D0251C0C35281C211C0122FFF7ACFD002805D1281C211CF1
:401980000022FFF7A5FD00E00120002815D0201C3430291CFFF704F8002805D13434637A002B03D0002302E0002300E00123002B05D0002004E0002002E0002000E00120F4
:4019C00038BDC046F0B55F4656464D464446F0B49BB0814601929B4606AE886B70603B4A06920B1C3433187A3072587A7072086CF060486C3061886C70611B7E33760B6D2D
:401A0000F361486D3062896D716210AF00237B6010927B72019C98460C2292462CE023782F2B01D1013427E000282BD0051BEDB20C2D00D9554602A8211C2A1C04F0BBF902
:401A4000404602AB5855381CFFF726F9381C311C02AA0123FFF7E4F9002806D1002349464B601A4A0A604B7227E06419301CFFF713F9331C3E1C1F1C201C2F2104F088F93B
:401A80000028CCD1019AA41A5B461C607068494648600E4B0B60337A0B72737A4B72F268CA6033690B6170694861337E0B76F269CA61336A0B62766A4E6248461BB03CBC93
:401AC00090469946A246AB46F0BDC046A06A0000F0B5ABB0041C0E1C151C1F1C02A801ABFFF770FF019AAD182B78002B1CD116A902AB039A4A60364A16921A7A0A725A7A50
:401B00004A72059ACA60069A0A61079A4A611A7E0A76099ACA610A9A0A620B9B4B62201C2C4AFFF7EBFD4FE00CAA00200D90284B0C93507202AB5A7A002A03D1201CFFF7C9
:401B4000FFFD41E0023A012A0CD8311C34310CA82A1C3B1CFFF764F9002812D1201CFFF7EFFD31E00CA802A92A1C3B1CFFF758F9002803D1201CFFF7E3FD25E002A8FFF777
:401B80008BF806233B4203D013990CA8FFF708F820A90CAB0D9A4A600D4A20921A7A0A725A7A4A720F9ACA60109A0A61119A4A611A7E0A76139ACA61149A0A62159B4B62B4
:401BC000201C2A1CFFF79AFD201C2BB0F0BDC046A06A0000E86A000008B5031C081C191C3431024A0023FFF75BFE08BD2518000008B501200149FFF7F9FD08BDFFFF00007F
:401C0000014B18707047C046D0000020014B18787047C046D0000020014B58687047C046D0000020632801D9014B58607047C046D000002008B504290BD1027812064378B8
:401C40001B04D21883781B02D218C378D018FFF7E9FF08BD08B50B4B1B78002B11D10A4B1B78012B02D0022B03D004E000F0F8F801E000F07BF80122024B1A70002002F0E6
:401C80009DF908BD7C050020D000002008B50022024B1A70012002F091F908BD7C05002008B5064B1B78012B02D0022B03D004E000F0AAF801E000F029F808BDD0000020C3
:401CC000F0B5474680B4051C0F1C0D493A1C04F03DF800240B4E0C4B984607E00134E4B2281C4146221C3B1C04F030F8301C291CFFF772FF0028F1D104BC9046F0BDC04652
:401D0000EC6A0000E0030020F46A000030B58BB0051C028812044388D2186846104904F015F810486946FEF74DFB002411E0201C00F05CF900280AD0A31C5B005A5B6846F5
:401D4000094904F003F807486946FEF73BFB0134E4B2032CEBD90348FEF744FB0BB030BD006B000058050020046B000030B58DB068461E49FFF7A4FF03A81D496A461323F6
:401D8000FFF7A6FE1B4804994160059B8360069CC460031C103307AA32CA32C312781A700B9D05621449FEF70DFB0024114D16E0201C00F01BF900280FD0281C0F49FEF7CE
:401DC00001FBA100091989000D4BC918281CFEF7F9FA281C0B49FEF7F5FA0134E4B2032CE6D90448FEF7FEFA0DB030BD086B0000E0030020580500200C6B0000146B000035
:401E0000D8000020186B0000F0B5474680B480460024012600271BE0012C07D9A01EC0B200F0E4F8002803D13B1C02E0331C00E0331C002B0AD0630042469D5A290A074869
:401E4000FFF7F8FBE9B20548FFF7F4FB0134E4B2052CE1D904BC9046F0BDC04658050020F0B54F464646C0B48DB068462149FFF727FF03A820496A461323FFF729FE1F4807
:401E800004994160059B8360069CC460031C103307AA32CA32C312781A700B9D0562184B1978FFF7C7FB002188468946154F134E18E0404600F09AF8002808D10EE02B1912
:401EC000D95D301CFFF7B6FB0134E4B204E04C4641468D004544AD00132CF0D943460133DBB298464346032BE3D90DB00CBC90469946F0BD1C6B0000E0030020580500209D
:401F000041040020D800002010B53F20002102F06DF80848FFF722FD002801D0012400E000240120002102F061F8034B1C70201C10BDC046E003002040040020014B187868
:401F40007047C04640040020F0B5032815D800230A4CA446840020188000002766460AE0934203D2CD5CC418A55502E0C418654667550133DBB2132BF2D9F0BDD8000020EA
:401F8000F8B500AF06788B1DDB08DB006A46D21A95466D46012206E0835C002B05D0541E2B550132D2B28A42F6D3013AD2B2301C291CFFF7C9FFBD46F8BDC046032806D8BC
:401FC00001238340181C024B1A7810431870704741040020032806D801238340181C024B1A7882431A7070474104002001238340181C024B1B7818407047C046410400200D
:40200000064B18885B88984205D2C01AC023DB00C01880B201E0C01A80B27047420400200A4A5388128893420DD05900084A885A01339BB2054A5380064A934204D90022A0
:40204000024B5A8000E004487047C04642040020E8050020FF050000FFFF000070B5061C0D4D2C88601CC021C90002F073FD6B8899420CD06200094BD6520134A4B22C803F
:40208000074B9C4205D900222A80012002E0002000E0012070BDC04642040020E8050020FF05000008B50C4B1A680C4B1B68D21AFA235B009A4208D9094B1B78002B02D003
:4020C000FFF7E4FD01E0FFF7C5FD034B1A68034B1A6001F069FF08BDB4050020480400207C05002010B5FF221B4B1A60002001F081FE1A4C2080012001F07CFE60800220EA
:4021000001F078FEA080032001F074FEE080144B1B78002B1FD00022114B1A70FFF770FF104B984214D8104C6088FFF797FF2088FFF794FF094C2088FFF790FF6088FFF737
:402140008DFFA088FFF78AFFE088FFF787FF02E0002001F05BFF10BD10023A40AC050020A8050020F9050000B405002010B5154A138801339BB21380632B0FD90022114B66
:402180001A80114B186801301860FA21890002F081FC002902D101220C4B1A700C4B1B78002B0ED0074C636801336360FFF734FD6368984205D80022024B5A600122054BA0
:4021C0001A7010BD4C040020B4050020310500207C050020A805002008B5012805D1034B994202D10248FFF7ABFA08BDFFFF000054040020074B2433195C0906421C9A5C22
:4022000012048A18811C595C0902521803301B5CD018704754040020F8B50023274C284805E0E15C021C2432D1540133DBB25AB2002AF6DA224BA3331B78002B15D13CE026
:40224000201C142102F0E2FBC5B2201C142102F021FCC9B23B1C24331B5DA80040198000401883550134E4B202E00024144F154E4F2CE5D9124C231C74331878FFF7C0FC7F
:402280005120FFF7B7FFFFF7CDFC231C79331A780D4B1A705620FFF7ADFF00F037FD5A20FFF7A8FF00F038FD82342378002B02D000F044FD01E000F047FDF8BD806B000037
:4022C00054040020D80000204104002010B50A0E054B24331A54421C0C0C9C54821C0C0A9C540330195410BD54040020F8B5302001F02EF90024234F234E13E0201C1421A8
:4023000002F084FBC5B2201C142102F0C3FBC9B2A800401980004018C25D331C24331A550134E4B24F2CE9D9FFF770FC164C251C2435231C74331870FFF76EFC011C51204A
:40234000FFF7C4FF231C7933104A12781A7000F0E9FC011C5620FFF7B9FF00F0E9FC011C5A20FFF7B3FF00F0F5FC231C82331870A334012323700648C009291C01F074F87D
:40238000C0B2F8BDD80000205404002041040020806B000030B593B0FFF7D0FD00283BD01E481F49FFF718FC002834D009A81B491B4A0123FFF78CFB1A480A9941600B9BAD
:4023C00083600C9CC460031C10330DAA32CA32C312781A70119D056201A92022FFF7BEF9C1B2104C08E001A800F08AFA201C01A92022FFF7B3F9C1B20029F4D101A80A238D
:402400000370012100F07CFA0648FFF7D7F9FFF76DFF012000E0002013B030BDE0030020006C00005404002008B501200149FFF7D3FE08BDFFFF00003038C0B20023092299
:4024400082425B41D8B27047031C303B092B09D9113B192B08D9203B192B07D95F2807D1012006E0012004E0012002E0012000E00020704710B50023002207E09400A218A6
:402480005200C45CA218303A0133DBB28B42F5D3101C10BDF8B55F4656464D464446F0B4061C8846171C0024A14601239A461BE0A3464246155D012D04D1305DFFF7BCFF37
:4024C000002808D15A46B35C9D4206D020339D4205D14B4604E04B4602E04B4600E05346002B05D10134E4B2BC42E1D3012000E000203CBC90469946A246AB46F8BDC0469D
:4025000008B500F01BFC08BD08B5FFF757FD08BD08B502490A7DFFF717FD08BDF804002008B50348017DFFF7A5FFFFF77BFB08BDF804002010B50D4B1C7D032C15D1181C60
:402540000B49221CFFF7A6FF002803D00120FFF757FB0AE0054806490431221CFFF79AFF002802D00220FFF74BFB10BDF80400200C6C000070B586B0041C0023434804E07C
:40258000C15C05AAD1540133DBB2032BF8D900233E4905E05A1D8A5C6846C2540133DBB2012BF7D90023394806E01A1C0832815C01AAD1540133DBB2012BF6D900233348FC
:4025C00006E01A1C0B32815C02AAD1540133DBB2012BF6D900232D4806E01A1C0E32815C03AAD1540133DBB2012BF6D90023274806E01A1C1132815C04AAD1540133DBB257
:40260000012BF6D905A80421FFF734FF30307F23034060797F2290431843607168460221FFF728FF0F23184023790F2293431843207101A80221FFF71DFF1F251F26331C29
:402640000340E078A8431843E07002A80221FFF711FF06402378AB431E43267003A80221FFF708FF3F253F26331C03406078A8431843607004A80221FFF7FCFE0640A3785C
:40268000AB431E43A67006B070BDC046F804002000B583B00848027D08490831FFF7FAFE002807D06846FFF765FF684600F0E0FA00F02CFB03B000BDF80400200C6C0000E7
:4026C00000B583B00848027D08490831FFF7E2FE002807D06846FFF74DFF684600F0C8FA00F01AFB03B000BDF80400200C6C000008B5504B5A7D112A0BD1181C18304E4912
:402700001C31FFF7C7FE002800D191E0FFF7F8FE8EE0102A10D14748183047493031FFF7B9FE002800D183E02023424AD05C3138C0B2FFF7E9FE7BE00E2A1AD13D481830E3
:402740003D494031FFF7A6FE002805D0394B1B7D002B03D1012302E0012300E00023002B66D12023334AD05C3138C0B2FFF7D0FE5EE00C2A15D12F4818302F495031FFF78E
:4027800089FE002805D02B4B1B7D002B03D1012302E0012300E00023002B49D1FFF7C0FE46E00B2A15D12348183023496031FFF771FE002805D01F4B1B7D002B03D10123EA
:4027C00002E0012300E00023002B31D1FFF7B2FE2EE00A2A15D11748183017496C31FFF759FE002805D0134B1B7D002B03D1012302E0012300E00023002B19D1FFF748FF73
:4028000016E0082A14D10B4818300B497831FFF741FE002805D0074B1B7D002B03D1012302E0012300E00023002B01D1FFF748FF08BDC046F80400200C6C000010B5041E2B
:402840000A2C01D00D280DD12B4B5B7D002B01D0FFF74EFF284B00221A755A750422274B1A7047E0254B1B78042B13D1232803D10522224B1A703DE0FFF7E6FD002839D0FB
:402880001D4B5A7D511C59759B181C7601221B4B1A702FE0012B14D1FFF7D6FD002809D0154B5B7D132B25D8134A591C5175D3181C761FE00222114B1A7000220E4B1A75C1
:4028C00018E0022B0CD1FFF7BFFD002812D00A4B1A7D511C19759C540322084B1A7009E0032B07D1044B1B7D132B03D8024A591C1175D05410BDC046F804002028010020AF
:4029000070B5061C0D1C002404E0305DFFF796FF0134E4B2AC42F8D370BDC04610B5FA23DB00C418A30710D1201C642102F0B2F889B200290BD1201CC821490002F0AAF88D
:4029400089B2002905D1012004E0002002E0012000E0002010BDC04670B582B0041C00236A4613708578AD06AD0E281C0A2102F09BF80601281C0A2102F0ECF80E436B46A8
:402980005E706578AD06AD0E281C0A2102F08CF80601281C0A2102F0DDF80E436A4696702578ED06ED0E281C0A2102F07DF80601281C0A2102F0CEF80E436B46DE70A379DA
:4029C0005B075B0F6A461371E578ED06ED0E281C0A2102F069F80601281C0A2102F0BAF80E436B465E7125792D072D0F281C0A2102F05AF80601281C0A2102F0ABF80E43C2
:402A00006A46967164796406640E201C0A2102F04BF80501201C0A2102F09CF80D436B46DD7101F0C9FC682069460822002301F0E3FC022401F0A8FC0442FBD0012002B09F
:402A400070BDC046F0B583B0041C6820002101F09FFB00287AD101F04BFC01F005FC01F0ABFC682069460722002301F03DFD012501F08AFC0542FBD0684601787026331C59
:402A80000B401B119A009B185A000F23194055183F223F210D40A07890432843A070684645782E403611B000361870001D404019014060789043014361706A469178302638
:402AC000301C08400011820080184200194055181F221F210D4020789043284320706D46E87807250540A0790727B8432843A071684605792E403611B000361870001D40ED
:402B000040190140E07890430143E1706A465179C806C00F82008018420019405118194022790F2082430A4322716D46A9790A099000101842000B40D2187F231A4063794F
:402B40007F218B431A436271012000E0002003B0F0BDC046F0B5474680B4051C0F1C081C3C4901F053FF1E387F23034098466B797F229343424613436B7144461F34A410D3
:402B8000381C354901F042FF0604360C301B6E21FF3101F0DFFF8CB24046FFF7BFFE002803D03B2C03D8002302E0002300E00123002B01D00134A4B20023284906E0CA5CE5
:402BC000A24205D2A41AA4B20133DBB20B2BF6D9611C1F242140EA78A2430A43EA7001330F2213402A790F218A4313432B711C4B7343DF19381CE121090101F007FF20401B
:402C00002B78A34303432B70164B5843C719BFB2381C3C2101F0FAFE3F233F22104069789943014369703C21494248433F183A40AF789F433A43AA70301D072101F08AFF83
:402C400007231940AB79072293431943A97104BC9046F0BD8033E10180510100906C000080AEFEFFF0F1FFFF08B501F023FA08BD38B5051C40794006400E031C1E339A088B
:402C8000D2B26E24FF345C43A418A4B2FFF746FE002806D02B791B071B0F022B03DC002302E0002300E00123002B01D00134A4B20023144904E0CA5C1419A4B20133DBB265
:402CC0002A791207120F013A9342F4DBEA78D206D20EA218013A92B20B4842432B78DB06DB0EE1200001584380186A789206920E13019B1A9B001B18A8788006800EC0188E
:402D000038BDC046906C000080510100014B18607047C04628050020014B58607047C04628050020014B18687047C04628050020014B58687047C046280500200122014B93
:402D40001A727047280500200022014B1A72704728050020014B187A7047C0462805002000B583B06846FFF76DFE6846FFF780FF0C4B18600C4B1B7A002B0ED00A4B5B68E7
:402D8000984204D30022084B1A72022008E0064B1B68984203D3012002E0002000E0002003B000BD240500202805002008B500F0A5FE08BD08B500F013FFC0B2FF22044BF4
:402DC0001A600449044A054B00F00AF808BDC046C00F2440153B0000E13A0000AD2D0000F0B5474680B486B0161C1F1CBE4C2478002C00D192E0BC4A557893789D4200D18D
:402E00008CE0002D0BD1152802D80130907002E01622B54B9A700122B34B5A705FE1B24A9046AC46C4446246D0700135EDB242465570AB4200D052E1222C6BD8A400AB4A96
:402E400012599746013BD9B2A7480430FFF798F860E0013BD9B2A4480430FEF7EBFE59E08847A14B1B79032B02D9FE20B04751E000219D4A5176101C9D4CA4469D00EB1850
:402E80009D00804607E0EA186446115D01AAD154013342465376437E132BF4D91420B04701A81421B84735E08F4B1879032831D8FFF784F82EE08C4B187903282AD8FFF7C6
:402EC00089F827E0884B187900065A79120410439A7912021043DB791843FFF717FF19E0814B187900065A79120410439A7912021043DB791843FFF70FFF0BE07A4B197968
:402F000009065A7912040A43997909020A43D9790A43DA610022744B1A70E0E0272800D9DDE08000734B1A5897468847724C2088000AB0472078B0476088000AB047A078A5
:402F4000B047A088000AB0472079B047E088000AB047A079B047C2E0634B02221A7000225A7016229A70BAE05F4B03221A7000225A7016229A70B2E0012120235A4AD1541B
:402F8000ADE001212123584AD154A8E001212223554AD154A3E08847FEF7D0FFB0479EE00120FEF72DFE9AE00220FEF729FE96E088470520B04751480521B8478FE04A4BFD
:402FC00012221A7000225A7016229A7087E08847FEF722FE041C000EB047200CFF252840B047200A2840B047281C2040B04776E08847FEF70BFEB04771E03B4B15221A70F0
:4030000000225A7016229A7069E0374B16221A70002159709A7062E08847394B1878B0475DE0314B18221A7000225A7016229A7055E02D4B19221A7000225A7016229A707A
:403040004DE0FFF77BFE4AE0FFF77EFE47E0264B22221A7000225A7016229A703FE0294B1C688847200EB047200CFF252840B047200A2840B047281C2040B0472FE0012175
:403080002323194AD1542AE08847FFF763FE002801D0012000E00020B04720E08847FFF741FE041C000EB047200CFF252840B047200A2840B047281C2040B0470FE0884747
:4030C000FFF736FE041C000EB047200CFF252840B047200A2840B047281C2040B04706B004BC9046F0BDC04634050020B86C0000D8000020446D0000AC0500202C0100206B
:40310000410400202405002008B5012805D1034B994202D10248FEF713FB08BDFFFF000058050020F0B585B062B6554801F084FA00F0B8FCFFF798FD524800F091FC00F068
:4031400059FC514800F092FF00F03AFE4F4800F095FE00F045FEFEF7D7FE002813D04C4800F056FDFFF716F9002802D1FFF754F80EE0002000F04AFF642000F071FA012036
:4031800000F044FF04E0434800F042FDFFF744F8414F3D1C3B78002B0ED000232B70FFF7DFFD012803D101223C4B1A7004E0022802D101233A4A13703A4B1968002908D093
:4031C00001A8FFF7C7FC01A8FFF7C6FB0022354B1A60354B1B78002B09D02423334AD35C002B04D10022304B1A70FFF77FF82B4B1B78002B04D00022284B1A70FEF72AFD10
:40320000274B1B78002B04D00022254B1A70FEF73DFD274B1B78002B14D00022244B1A70FEF772FE0EE0FEF7FBFE620001ABD0520134E4B200E0341C052CF4D901A8FEF708
:403240002FFD00E00026FEF7DBFE0528F3D82423164AD35C002B06D1101CFEF7BDFA002803D0012302E0002300E00023002B91D0104800F0CDFC0D48FEF7A0FA8AE7C04687
:40328000B52D00006D210000A5200000E5200000E46D0000F46D000031050020540500205505002050050020570500205805002056050020106E000008B501200149FFF754
:4032C00023FF08BDFFFF0000FEE7C04608B5C0B200F090F9FEE7C04608B5094B1B681818084A821A802A02DC054A106005E002F0D3FB0C23036001235B42181C08BDC0467B
:403300003401002030120020F8B50F4F0F4E002412E031687368B568221C02E001C901C30432AA42FAD1F168221C01E010C304328A42FBD11036013F002FEAD102F0B2FB04
:40334000FFF7F0FEFEE7C046010000009471000038B5104B1A6801218A431A6000230E4C0E4D0F4808E0032B02D89A00515900E0211C9A00115001332F2BF4D9FCF7C6FEB8
:403380000022084B1A60034B196801220A431A6038BDC04600001040C93200000000000000000020C0000020F0B500220027FF239C4611E0BB00C658F3B26446A64308E043
:4033C00054000C192578AD1964782C700132013BDBB2002BF4D10137072FEBD9F0BDC04608B50A1C002102F0AFFB08BD08B502F0A2FB08BD064B1B68002803D080221206A9
:403400001A4301E05A005208014B1A607047C04680033A4008B53022094B1A600323094A1360094A1360094B094A1360094A13600022094B1A600120FFF7DCFF08BDC046FE
:403440000421024030003040300031400700080000033A4040033A40000E3F4000207047002070470020704730B5A5B0041C0023239322932D4B984252D8002950D002A8F2
:40348000802202F058FB2A4B9C4201D9294B00E0294B00937F230193284B00AA1A602849284A11601B681B0F0A2B04D0234B1B680F22134000E000232393239B002B31D1AD
:4034C00001F0D3F8051CFFF7C9FF2290229B002B02D1FFF7C5FF2390239B002B16D11A4B0093009B24041C430094144B00AA1A601649144A11601B681B0F0A2B04D00F4B18
:403500001B680F22134000E000232393229B002B02D1FFF7A7FF2290281C01F0AAF801E004232393239825B030BDC046FF030000FF010000B6D70001B6D700000800104035
:403540000400008004001040B6D800000500008038B5041C01F089F8051C102C05D8104B1A6803218A431A6016E0202C07D80C4B1A6803218A4301210A431A600CE0302C43
:4035800007D8074B1A6803218A4302210A431A6002E0002000F02EF8281C01F06AF838BD30001040034B1B685A0001D5012000E00020704700002240024B1968024A0A40BA
:4035C0001A60704700002240FFFFFFBF1F23184001238340181C014B1860704700E100E01F23184001238340181C014B1860704780E100E001BE704738B5041C0D1C1F2827
:4036000002D90020FFF7F6FFA400024BE4182068256038BD4000002070B5041C0E1E032E02D90020FFF7E6FF1F2C02D90020FFF7E1FF03252540ED00063501F016F8A40861
:40364000A400064BE41823680322AA409343AE40351C1D43256001F00CF870BD00E400E070B5041C80252D02074E04E0306800F0F3FF064BE418AC42F8D8034B5868604357
:4036800000F0EAFF70BDC046380100200080FFFFF0B583B000F0B0F8002844D000F0E5FF071C0023214E3F25214C07E031682940E25C914201D1D91C03E001332D2BF5D923
:4036C00003211C4B1B68D80606D11A4B1A681F2082430C2002431A60174A1068174B0340174841438020C0010918C90B01394905490D0B43A02149030B431360114C236898
:4037000001933020FFF724FF0F4B19688022D2050A431A60A0204000FFF7A2FF019B2360381C00F0A6FF03B0F0BDC0462CFF0B40E870000034FF0B400800224000F8C0FFFF
:4037400040420F00300010400000224030B587B0051C00F08AFF041CFFF724FF002803D0FFF72AFF012100E00021104B1B6800930F4B1B680193033D0E4B5B5D02930E4B89
:403780001B68039304AA0D4B049300AB05930C4B1A600C480C4A10601B68012901D1FFF777FF201C00F065FF07B030BD08010B4000010B40E870000030001040B6EA0000EE
:4037C00008001040170000800400104008B5034B1B7A584300F040FF08BDC04638010020044B1A68C0231B021A4201D0012000E00020704700010B40034B1B68002B01DAFF
:40380000012000E0002070470000224008B500F02CFF044B1968C02212020A431A6000F028FF08BD00010B4010B500F01EFF084B1968084A11408024E40121431960196891
:403840000A40802109020A431A6000F012FF10BD00010B40FF3FFFFF38B5051C00F005FF041CFFF7BDFF002803D0FFF7DDFF012200E00022084B1D40084B1868084901405A
:403880000D431D601B68012A01D1FFF7BFFF201C00F0EFFE38BDC0460404040010020B40FBFBFBFF10B5244B1B685A0715D5234B1B685A070ED5224B9C69042214401F490F
:4038C0000868A0430860996991439961DB68002B00D098470420FFF7BFFF174B1B685A0518D5164B1B685A0510D5154B9A698020C0001040114A1168814311609969114A76
:403900000A409A611B69002B00D098478020C000FFF7A2FF084B1B685A030CD5074B1B685A0304D5064B5B69002B00D098478020C002FFF791FF10BD10020B404801002064
:40394000B8050020FFFBFFFF044B1968F7220A40C0000821084010431860704700010440024B197880220A431A70704771000F40014B18707047C04681000F40014B18783C
:40398000C0B2704761000F40014B18807047C04640100F40014B188880B2704780100F40014B18807047C04600100F4010B5082401E0FFF7EFFFFFF7E1FF0442F9D110BDD1
:4039C00010B5E024FF34201CFFF7DEFF201CFFF7E7FF00F04AFE064B197810220A431A7000F047FEFFF7E2FF0120FFF7C1FF10BD91000F4008B5064B1B78002B04D1FFF75A
:403A0000DFFF0122024B1A70FFF7AAFF08BDC046D4050020014B58647047C0460000002010B5041C00F021FE054B1968054A1140A2030C1C14431C6000F01BFE10BDC04685
:403A400000E400E0FF3FFFFF0222014B1A60704700E100E00222014B1A60704780E100E010B5041CFFF7F6FF201CFFF7D3FF0320FFF7D6FFFFF7E8FF10BDC04608B500F0E3
:403A8000A5F808BD08B500F055F808BD08B5044B1968802212060A431A60FFF7EFFF08BD0000244008B5064B1B78002B04D1FFF7E9FF0122024B1A70FFF7E8FF08BDC046A9
:403AC000D5050020014B18687047C04640032440024B1B681F2018407047C0460803244004491F220B681340082BFBD0024B18607047C046080224404002244070B5061CDA
:403B00000D1C002403E0305DFFF7EAFF0134AC42F9D370BD054B1968802252020A431A601968034A0A401A607047C04604022440FFFFFEFF10B5134A134B1A600023134A11
:403B400013600121124A1160124A13480260072412480460124803601248016012490A60124A1360042212490A6012490B6012490B6012490B6012490B6012490A60124AB1
:403B8000136010BD0B0000020000244040002440480024400700008000032440040324401003244044002440000224400402244050002440880E2440C80E2440480F244019
:403BC000080F2440C80F2440880F2440034B1A68F0218A4390210A431A6070470004024008B5FFF775FF002802D0FFF76BFF01E0054B1868054B1968D822920011401A6097
:403C00000B02184308BDC04640032440C00F244038B5051C002402E0FFF762FF0134285D0028F9D138BDC046F8B510200321FFF7F3FC10203C49FFF7DFFC0F223B4B1A60C8
:403C40003B4B1A683B4B1B68002B01DA3A4B00E03A4B1A43364B1A60394A3A4B1A603A4A3A4B1A6000233A4A13603A4A3A490A603A490A603A4A13603A4A136001223A4BD8
:403C80001A603A4B19683A4A0A40802189050A431A600026374DDC239C01374F41E0B2005359191C2140A819007C0143334812181160D90707D52A4B196880225202B240AE
:403CC000120C0A431A60B3002A4A9B58980707D5244B196880225202B240120C0A431A60B30024495B589A0502D58022520001E080225201D80504D473000021204819525E
:403D000003E0530871001E480B521E4842431E495018391C00F0C8FE00B2B3001B4A98500136032EBBD9F8BD213E000020003A4000003A4080033A40E02E1011E02E00112B
:403D40008000008004003A400000FF0718003A401C003A400200020010003A4014003A4028023A4038023A4018023A4030003A40FEFFFFDF18710000E40C000080003A4097
:403D8000F81100201027000072060000E811002008B5094B1B68002B0CDB084A1368002BFCDB054B1968802212060A431A600A20FFF70CFD08BDC04600003A4008023A4059
:403DC00008B5064B1B78002B04D1FFF72DFF0122024B1A70FFF7DCFF08BDC046D6050020034B1968802252020A431A607047C04604003A4010B5041E032C02D90020FFF7A1
:403E0000F9FB032C06D8A400044BE41820680004000C00E0002000B210BDC04680013A40014B1A681A60704710023A408023014AD05070470000002010B5041C00F015FC24
:403E4000054B1968C0229143A2010C1C14431C6000F00FFC10BDC04610E400E080225202014B1A607047C04600E100E080225202014B1A607047C04680E100E010B5041CA2
:403E8000FFF7F4FF201CFFF7D1FF0320FFF7D4FFFFF7E4FF10BDC04608B500F0E6FB094B197820220A431A70074B197810221143C9B21970054B19780A43D2B21A7000F05A
:403EC000D8FB08BD93000F4092000F4090000F40014B1878C0B2704762000F40014B1878C0B2704760000F40034904220B781342FCD0024B1870704762000F4043000F4039
:403F0000014B1878C0B2704753000F40034B1B789A0601D5012000E00020704760000F4008B50B4920220B4800E003780B781342FBD100F09AFB084B197801220A431A70F4
:403F40001A7801218A431A7000F093FB08BDC04660000F4053000F4093000F4008B50F22064B1A70FFF7DCFFFFF7B2FFFFF7B6FF0023034A1370034A137008BD83000F4074
:403F800082000F4080000F4008B5064B1B78002B04D1FFF7E3FF0122024B1A70FFF77CFF08BDC046D7050020034B1868802210401860C009C0B2704710000440044B196868
:403FC000BF220A4080014021084010431860704700000440044B1968BF220A408001402108401043186070470002044010B5064B1A680724224000021043C900FF22114004
:404000000843186010BDC04600030140044B1968DF220A4040012021084010431860704700060440014B18647047C0460000002010B5041C00F019FB054B1968C0229143E0
:40404000A2010C1C14431C6000F013FB10BDC04600E400E00122014B1A60704700E100E00122014B1A60704780E100E010B5041CFFF7F6FF201CFFF7D5FF0320FFF7D8FF05
:40408000FFF7E8FF10BDC04608B50920FFF79EFA08BDC04608B500F01DF808BD08B5044B1968802212060A431A60FFF7EDFF08BD0000254008B5064B1B78002B04D1FFF7D9
:4040C000E9FF0122024B1A70FFF7E8FF08BDC046D805002010B50024194B1C60194A1A4B1A601A4B1A4A13601A4A14601A4A14601A4A13601A4B1C600920FFF771FA0920D7
:404100000321FFF789FA09201649FFF775FA164B1C60164B1C60164B1C601422FF32154B1A60154B1C60154B1C601022144B1A70144B1C80144B1C60144B1C6010BDC046C6
:4041400000002540C70800806000254007010080000325400403254010032540000225400402254079460000C80E2540880E2540480F2540080F2540C80F2540880F2540BB
:404180000012002010120020241200201C12002038B5051C0C1C2D4B1B78102B51D12C4B1B68DA074FD40920FFF71AFA6D00FF231D40002C03D12422244B1A7004E02522C2
:4041C000224B1A7001231D43224B1D60224A234B1A600222224B1A6020490822FF320B681342FCD01D4B1B685A0714D41B4B1B689A0713D4194B1B68DA0705D51022134BCC
:404200001A70012001210BE01022104B1A7080204000012104E00020002101E0022000210822FF320D4B1A6000290DD00D4B1A68520052081A601968802212060A431A602F
:4042400002E0042000E0082038BDC04600120020640025404002254017030000000F254068002540000025401C4B1B789A0633D51B4B1B689A0601D5182200E01022194B22
:404280001A6019491222FF320B681342FCD0164B1B68DA0606D4144B1B68DA0705D50120012105E00020002102E08020400001211222FF320C4B1A601022084B1A70002933
:4042C0000BD00A4B1A68520052081A601968802212060A431A6000E004207047001200206400254068002540000F254000002540214B1B789A063CD5204B18602049082262
:40430000FF320B681342FCD01D4B1B685A0705D56022194B1A700020002119E0184B1B689A0705D56022144B1A70022000210FE0134B1B68DA0705D510220F4B1A70012017
:40434000012105E010220C4B1A708020400001210822FF320A4B1A6000290BD0094B1A68520052081A601968802212060A431A6000E004207047C04600120020400225405B
:40438000000F25400000254010B50920FFF728F9074B1B889BB21C1C064A1278910601D504241C430920FFF711F9201C10BDC046101200200012002010B50920FFF710F93E
:4043C000044B1C88A4B200221A800920FFF7FEF8201C10BD10120020054B1B689A0601D5082200E0002201231A43024B1A6070476400254068002540F0B5474680B4071CC5
:404400000D1C90461E1C002919D0294B1B78102B0AD10920FFF7E4F8264B1B68DA0701D508240FE000240DE0214B1B78602B08D1214B1A8808218A431A80002402E0042413
:4044400000E00424002C2BD12822194B1A7000231A4A13601A4A13601A4B42461A601A4B1D60F2B2194B1A707F00FF231F40124B1A8802218A431A80154A164B1A60402302
:40448000154A1360154A1360F30704D5FFF7A4FF134B1F6004E0124B1F600222114B1A600920FFF793F8201C04BC9046F0BDC04600120020640025401012002008120020AF
:4044C0001C120020041200200C1200202012002017030000000F2540800F2540880F25404002254068002540F0B5474680B4071C0D1C90461E1C002919D02E4B1B78102B9B
:404500000AD10920FFF76CF82B4B1B68DA0701D508240FE000240DE0264B1B78602B08D1264B1A8808218A431A80002402E0042400E00424002C35D129221E4B1A7000226E
:404540001F4B1A601F4B42461A601F4A1560F2B21E490A707F00FF22174001210F43174A1088884310801A491A4A11601B68072B03D80422184B1A6008E0184B1968802290
:4045800052000A431A600822134B1A60F30704D5FFF722FF124B1F6004E0114B1F600222104B1A600920FFF711F8201C04BC9046F0BDC04600120020640025401012002078
:4045C0002412002014120020181200202012002017030000000F2540C80F2540600025404002254068002540014B18667047C0460000002010B5041C00F037F8054B196804
:40460000C0229143A2010C1C14431C6000F031F810BDC04608E400E080225200014B1A607047C04600E100E080225200014B1A607047C04680E100E010B5041CFFF7F4FFB0
:40464000201CFFF7D1FF0320FFF7D4FFFFF7E4FF10BDC046000000000230800803D00138FDD1C046C046C0467047EFF3108072B6704780F310887047F0B557464E464546CF
:40468000E0B4BF4B1B68002B00D09847BD4B1B68D80702D50022BC4B1A60BC4B1B78990628D5BB4B1B68DA0507D5BA4B1988C02292000A431A80012300E00023B44A126801
:4046C000D40706D5B34B1988902292000A431A800123002B0FD0AD4A1278D00701D5012100E00221AB4A1088014311800021A74A117000E00023A54A1278910600D420E1DC
:40470000A34A1268D40611D51022A34B1A609F4B1B78D80701D5012100E002219D4B1A880A431A801022994B1A7024E1974A1278110720D5964A126894070AD50222964BFA
:404740001A60944B1988882292000A431A80012311E08E4A1278D00703D525218B4A117009E02421894A11708C4A1268002A02D010218B4A1160854A1278510700D4B7E0F9
:40478000824A1278D4074AD5864A1268100728D5854A1168854A12681F2002408448006812188A1A082A09D8002A14D1814B1968814A0A401A60012308220CE008220AE0EB
:4047C0000868346820182C68E4B20470086801300860013A02E07649784E794D002AEFD119E0704A1268500715D5714A116873480068411872480068C0B2087011680131A7
:4048000011601168684A1268914203D204216D4A116000E001236C496C4A116068E05C4A1268910727D502225B4B1A60684B1968684B1A681F2002401B681C0401D50123C6
:4048400000E00023D318CA1A614B1A601A68624B1A60504B1988842292000A431A805F4B1968802252020A431A6019685C4A0A401A6001233CE05B4A1268D0061CD42EE036
:4048800038683168884226D249460868013844462168884204D14021534801604048016011686046006841180878C0B24F49086011680131116009E0464D1F218A46444FC0
:4048C000364EB146B8463A1C494884462968544621400829D4D11021434A116008E0414A1268500604D53A4B1A683B4B1A600123002B40D02F4B19682F4A0A401A60002320
:404900003C4A1360264A13603B4B1B7899070ED51E4B1B78DA0701D5092100E00A211D4B1A880A431A806022184B1A7023E0334B1B689C0601D5182200E01022214B1A6009
:4049400019E0124B1B78D80615D42D4B1A68520052081A6010210D4A1170164A106829490140116010682849014011601968802212060A431A601CBC90469946A246F0BDA3
:40498000DC0500208C0E2540880E2540001200200C0F254010120020000F254004120020880F2540CC0F254014120020080325402412002060002540FFFEFFFF181200200C
:4049C0004003254068002540ED0F0000C00F254008120020080225401C12002004022540FFFFFEFF8C0F2540800F2540400225400C120020C80F2540201200206400254085
:404A000000002540FF5FFFFFFFFCFFFF002934D00123002210B488422CD301242407A14204D2814202D209011B01F8E7E400A14204D2814202D249005B00F8E7884201D3C2
:404A4000401A1A434C08A04202D3001B5C0822438C08A04202D3001B9C082243CC08A04202D3001BDC082243002803D01B0901D00909E3E7101C10BC7047002801D000209E
:404A8000C04307B4024802A14018029003BDC046D90000000029F0D003B5FFF7B9FF0EBC4243891A1847C046002941D010B4041C4C40A44601230022002900D54942002891
:404AC00000D5404288422CD301242407A14204D2814202D209011B01F8E7E400A14204D2814202D249005B00F8E7884201D3401A1A434C08A04202D3001B5C0822438C0862
:404B0000A04202D3001B9C082243CC08A04202D3001BDC082243002803D01B0901D00909E3E7101C6446002C00D5404210BC7047002806D003DB0020C043400801E080203B
:404B4000000607B4024802A14018029003BDC046190000000029EBD003B5FFF7A7FF0EBC4243891A1847C0467047C04603685A0003D45B005B08C018704780221206134379
:404B8000F9E7C046F0B55F46444656464D46F0B4804683B09346002923D0013901918A4600275246BB18DC0FE41864104346E5005E19301CFFF7DAFF019A8146A24219D0C2
:404BC000083543465819FFF7D1FFD94504D9BC4207D0013CA246E4E70138584502D2671CDFE70026301C03B03CBC90469946A246AB46F0BD5845EAD8F4E7C046012809D06B
:404C0000022805D0002801D0002070470248FCE70248FAE70248F8E719530000315300002553000030B5244B83B0041C8D1E002B3CD0281C01A900E000BF031C002B20D06C
:404C40002A1C0199FFF79EFF051E1DD0FFF78EFF6B68A064012B10D0281D002B20DBFFF785FF0023E06423650368002B0FDBFFF77DFF2061002003B030BD00232361052078
:404C8000F9E723610920F6E720610920F3E71B01180FFFF7B3FF2061002805D10920EAE70123E0642365DFE70020E4E70348044B1B1ADB100193C3E700000000646600003F
:404CC0006C6A0000036810B5041CDA0705D49A070FD5483000F07EFC23685A070FD51A0714D5DA0604D4E8235B00E01800F07EFC10BD483000F06AFC23685A07EFD4201C8D
:404D0000D03000F06BFC23681A07EAD4A8235B00E01800F067FC2368E3E7C04602680023002A00D01318181C7047C046092070477047C04638B5041C0D1C08E02B6C0120D0
:404D40006361211C2A1C23699847082807D1201C296CFFF767FF0028F0D000F095FE0728FBD10020296CFFF7E3FF281D00F018FCF0B54F464646C0B4C368314C9846A54467
:404D80008369051C171C0431402202AC03A8994600F0D1FE0023281C216C0293FFF742FF7B1E9F41061C0937002E14D0A36B102163644B4601933943009401202A1C2B1C8F
:404DC000C047002832D1301CF3239B009D440CBC90469946F0BD236CF0226B61211C52007AA800F0A8FE291C7AAA2B69381C9847889B061C63644B46019300940120391C5A
:404E00002A1C2B1CC047002810D1F022201C7AA9520000F090FE082E06D1281C216CFFF701FF0927061CBFE7072E01D00920CBE70020216CFFF77CFF03A800F0B1FBC0467C
:404E400034FCFFFF406C704770B5CB6BF8B00B64041C0E1C01A80431402200F06CFE01235B42009306E0211C6A4623699847051E082D08D1201C1099FFF7D4FE0028F2D0F1
:404E8000092078B070BD6846FFF71CFF062DF7D1201C311CFFF74EFF08B58261DA6BC1601A64191C0022FFF763FF08BD38B54369041C0B64C3680D1C002B04D00122FFF762
:404EC00057FF00F0E1FD0220211C2A1C23699847072807D0082803D1201C291CFFF72AFF00F0D2FD0020296CFFF722FF281D00F057FBC04608B5C368002B05D0CB6B00227C
:404F00000B64FFF735FF08BDFFF79EFFFBE7C0467047C04608B58368011C002B01D00120984708BD10B5012907D0002907D003390224012901D9201C10BD0124FBE70224F3
:404F4000002BF8D10F2AF6D8920080184268029B00241A60EFE7C04600B585B003AB0A1C009300210023FFF7DDFF039805B000BD10B5012907D0002907D003390224012985
:404F800001D9201C10BD0124FBE70224002BF8D10F2AF6D8029B92001B68801843600024EFE7C04600B585B00B1C039203AA009200211A1C0023FFF7DBFF05B000BDC04652
:404FC00070B5194CD36BA5441364061C0D1C17A8111D402200F0AFFD01235B42169313E016A80C216A46FFF7DDFF16A8291CB04700280FD10820694616AA049B9847041E50
:40500000052C08D0092805D068462699FFF70AFE0028E5D0092416A8FFF754FE201C8E239B009D4470BDC046C8FDFFFFF0B55F4656464D464446F0B40C1C1D1CE36C934657
:4050400003221E1D111C1B688BB00140019107930896002D69D11B02079325236B4409A91D700A70019A022A00D171E0236DDB0748D408230021034002910393A946356851
:40508000002D00D127E14A46022A4BD035887788043601239A465146A26C3B1C8B43D21858460F219046FFF757FF0022804506D82A1C53469A434244904280414242012333
:4050C0001F407F001D403D43012D43D0002D60D0022D1FD13368590049088A46019900296AD1002A07D0039A002A00D189E05146002900D1B1E0002B68DB534601339B002B
:40510000F618BCE700220292022D4ADDFFF70EFE00284CD009200BB03CBC90469946A246AB46F0BD77680836B3E7022D9ADC25211A0C69441B040A70079309A902230B705B
:40514000FF231A409200B618019A022A00D08DE7A66B8BE7019B002B3AD1002A17D031687368CD0F9A1CD5D0211C58310691013300D1B2E0301DFFF7D1FD06AB011C2A1C1E
:40518000201C009300E000BF002800D0B4E0083675E70199002902D0002A00D088E004366DE7584607A900F0C7FA0028B2D1029B002B5CD10820AEE758460D21256AFFF729
:4051C000CBFE854263D03368002B96DA043694E758460D21256AFFF7BFFE8542D7D1A36A9E42D4D1301CFFF7C1FC0F21021C5846FFF7D8FE58460021221CFFF7D3FE072050
:4052000089E75346002B28D0251C00235835371D06A904961E1C4B46A04605932C1C894603E00437554516D02E1C381C0694FFF775FD0022011C4B464046751C00E000BF90
:405240000028EED0059A4446B0469146049EC24503D03368B8E7049E444658460D21FFF77BFE069A20626262A662062053E70F215846FFF771FE0E21021C5846FFF792FE43
:4052800058460F21234AFFF78DFE072043E7A16A8E4298D10023E362042323635246331DA26263633368002B21DB0121029124E7301CFFF75BFC0436051CA663201C00E03B
:4052C00000BF002800D125E758460F212A1CFFF769FE07201FE74D4616E758460D21FFF73BFE2062069A6262A662062013E7504601308000301876E7071C0D215846FFF7E2
:405300002BFE2062022FEDD10699231C2C33E1626362E9E70000000008B50023FFF786FE08BDC04608B50123FFF780FE08BDC04608B50223FFF77AFE08BDC046F0B547462C
:4053400080B4061CC2B0151C1C1C01294CD0002931D0032908D0042901D1002B58D0022042B004BC9046F0BD032BF8D11504170C2D0CEB19102BF2D8036808221A4200D0A9
:40538000EFE020AC201C00F02FF9B06BFF006D00031CE7196A1E002D07D0391A1F68CF500433013AFAD2AD004319B363201C00F019F90020D4E70220002BD1D11704B26B36
:4053C0003F0C311C00230120041C9C40274202D0146804324C6001330431102BF4D10020AF04BDD4B263BBE71504170C2D0C012B2DD0052BB3D1EB19202BB0D80F2F00D879
:4054000097E0A846002D00D191E00F2F3AD827E0102AA4D8036810221A4200D08EE020AC201C00F0E5F8B16B00230120021C9A40154203D00F689A00A75004310133042B5D
:40544000F4D1201CB16300F0D1F8002088E7EB19102B00D983E70F2F00D980E700218846336801221A420DD0191C91430A1C3160052C00D18BE003229343301C336048306A
:4054800000F0A6F84246002A03D0336804221A4276D1012C45D00F2F6BD94146002946D0684600F09DF81023DB1BB56B291C002B10DD5B0020AAF80010181A1C9C46013A7A
:4054C0002B1C401B1968C1500433013AFAD26246910069184346002B15D05B009C463B1E102B00D21023181C1038C00000AD62462818013A0023CD58C5500433013AFAD26A
:40550000624695004919012C20D0B1630F2F24D94346002B00D14CE7684600F05FF800201EE720A800F054F84346002BBBD12B1CBBE7102B21D9103B984666E7E8219343D7
:4055400049000360401800F053F868E7043120A8B16300F03BF8002002E720A800F03AF8D6E7A824934364000360001900F03CF807E720A800F030F88FE7002290466FE781
:405580009343301C3360D03000F02AF881E702231A43301C3260483000F01EF872E7C046011C343138C9043B9C461D60A646011C20313CC990469946A246AB46011C08311B
:4055C000FCC941680068E54600BDC0467047C0467047C0467047C0467047C0467047C0467047C0467047C0467047C0467047C0467047C04601B401A801B585B0FFB408A8D9
:4056000041464A4653465C4665463EC001A83EC80F98009000230CB401A9FFF715FC109B12B0184701B401A801B585B0FFB408A841464A4653465C4665463EC001A83EC8D3
:405640000F98009000230CB401A9FFF72FFC109B12B0184701B401A801B585B0FFB408A841464A4653465C4665463EC001A83EC80F98009000230CB401A9FFF73BFC109B87
:4056800012B0184701B401A801B585B0FFB408A841464A4653465C4665463EC001A83EC80F98009000230CB401ABFFF7F5FB109B12B0184701B401A801B585B0FFB408A84F
:4056C00041464A4653465C4665463EC001A83EC80F98009000230CB401AAFFF771FC109B12B01847027A031C002A04D1427AB020002A07D17047013A0272006802021A6098
:40570000000EF7E7013A5A725A68111D1068032259601A72F2E7C04600B585B003AB009300210C220023FFF7FDFB039805B000BD08B5FFF7F1FF08BDF0B54D465F4656464C
:405740004446F0B40F2287B00D1C07230021061C03917F2790469946281CFFF7C3FF041EB02C00D1C8E0031CBB43DBB2002B2AD0031C41468B43DBB2802B00D181E0902B33
:4057800042D0A02B4FD0B02B62D0C02B00D195E0031C49468B43DBB2D02B0BD10C408022013412032243301C01210523FFF7C6FD0028D1D00924201C07B03CBC904699464D
:4057C000A246AB46F0BD8300FF221340043305AA009200219B469246301C0D220023FFF7A1FB059963060BD40B1C5B44059352460092301C00210D220023FFF7B9FBABE741
:405800005A468B1A0593F2E70D2303400D2BD1D005AC424602400094301C00210023FFF781FB0094E5E7FF231B014A468243191C11410A1C1A40030702D58023DB011A439E
:40584000301C00210023FFF779FD0028B2D183E7B12865D0B22878D0B32800D1A0E0FC230340B42BA6D04A4614408022013412032243301C01210123FFF760FD002899D158
:405880006AE70402281CFFF72DFF204380242402A04200D18EE70201000592460021020C0023301CFFF74AFD002800D082E75346234200D150E7012103914DE7C6287BD091
:4058C000C72800D18CE0031C4A469343DBB2C02B00D19AE0C82800D19DE0C92800D069E7281CFFF7FFFE4246434602409843C0B201320003024356E703990024002900D09D
:4059000059E705AD0095301C0E220023FFF70AFB0095301C00210F220023FFF729FB4AE7281CFFF7DFFE021E00D143E7031C41468B43DBB2002B00D03CE7301C0021FFF7F1
:40594000FDFC002800D035E706E705AA0023009200219246301C0D22FFF7E4FA281CFFF7C1FE031CBB43DBB20224002B0DD0059B3840A04018180590281CFFF7B3FE031CE9
:40598000BB43DBB20734002BF1D105998122920038408B18A0401C1853460594009328E7281CFFF79FFE4246414602408843C3B201321B031A435CE7281CFFF793FE4346B1
:4059C000424602409843C3B201321B031A43301C03210323FFF7B2FC002800D0EAE6BBE6281CFFF77FFE021E00D1E3E6031C41468B43DBB2002B00D0DCE6301C0421FFF7A6
:405A00009DFC002800D0D5E6A6E60C40A022013412032243DBE7281CFFF764FE4146021C8A43D2B210320840120301300243BAE610B5C26C84B0546801AB20020190101C5A
:405A40000830029003201872D279081C191C5A72FFF772FE04B010BD08B5FFF769FE806C08BDC04608B5FFF763FEC36CD8791A1D01308000101808BD08B500F005F8C0466E
:405A800008B500F001F8C04608B5062000F03EF90120FDF71BFC0000014B18687047C046AC01002070B50E4B0E4D0024ED1AAD101E1CAC4204D0A300F35898470134F8E710
:405AC00001F050FB084B094D0024ED1AAD101E1CAC4204D0A300F35898470134F8E770BD7071000070710000707100008471000008B5034B011C186800F076F808BDC04666
:405B0000AC01002008B5034B011C186800F024F808BDC046AC01002030B50023934208D0C55C0133CC18013C2478A542F6D0281B00E0002030BD10B50023934203D0CC5CF0
:405B4000C4540133F9E710BD031C8218934202D019700133FAE7704730B5002940D004390B68002B00DAC9181E4A1368141C002B02D14B60116033E099420FD208680A1835
:405B80009A4205D113685268C01808604A6000E04B60216024E08A4203D8131C5A68002AF9D11D685C198C420BD10968691858181960904214D114685268091919605A60B7
:405BC0000EE08C4202D90C23036009E008680C18944203D114685268001908604A60596030BDC046E405002070B50323CD1C9D430835061C0C2D01D20C2501E0002D3FDB67
:405C00008D423DD3204B1C681A1C211C002913D00868431B0DD40B2B02D90B60CC181EE08C4202D1636813601AE0486860600C1C16E00C1C4968E9E7144C2068002803D116
:405C4000301C00F025F82060301C291C00F020F8431C15D0C41C03239C4384420AD12560201C0B300722231D9043C31A0BD05A42E25008E0211A301C00F00AF80130EED1D9
:405C80000C233360002070BDE4050020E005002038B5074C0023051C081C2360FDF71CFB431C03D12368002B00D02B6038BDC0462812002038B5041C0D1E1F2D04D916235E
:405CC0000360012040421FE0436C002B04D08A009A181368002B08D1201C00F033F82A1C011C201C00F01CF80EE0012B0BD0591C03D116230360012006E00024281C14607F
:405D00009847201C00E0002038BD000008B5034B011C1868FFF7CEFF08BDC046AC01002038B5074C0023051C081C111C236000F08DFB431C03D12368002B00D02B6038BD47
:405D40002812002008B500F079FB08BD0EB400B59CB01DAB04CB822202A992008A810A4A02908A604A6101225242CA81074A086110681D9A019300F093F8029A00231370E6
:405D80001CB008BC03B01847FFFFFF7FAC010020C9B20378002B03D08B4204D00130F8E7002900D0181C70470023C25C0133002AFBD1581E704730B5031C002A07D00C784E
:405DC00001335D1E013A2C700131002CF5D19A18934203D0002119700133F9E730BD0000F0B58D6885B0071C0C1C03920193AB4245D390228B89D20013423DD062690326BE
:405E0000564309692068F20F401A96190290021C0198013212187610964200D2161C381C5A050FD5311CFFF7DFFE051E13D0029A2169FFF780FEA289184B1340802213438D
:405E4000A38111E0321C00F0C9FA051E0CD1381C2169FFF781FE0C233B60A389402213430120A381404217E0029B2561ED1825606661019DF61AA6600198A84200D2019D32
:405E80002A1C2068039900F090FAA2680020531BA36023685D19256005B0F0BD7FFBFFFFF0B59FB0039005938B890E1C171C19060FD53269002A0CD14021FFF795FE306054
:405EC0003061002803D103990C230B60C9E04023736106AD00236B6120236B763023AB763C1C2378002B03D1E21B029211D003E0252BF9D00134F4E70398311C3A1C029B7A
:405F0000FFF76EFF013000D1A6E06969029A8B186B612378002B00D19EE0012252426A606A4600235B3201342B60EB60AB601370AB654E4F2178381C052200F02BFA00280C
:405F400007D0C71B2B680120B840184328600134EFE72B68D90603D56A4620215B3211701A0703D56A462B215B32117022782A2A01D0099B0EE0059A111D12680591002A2A
:405F800001DB099204E05242EA60022213432B60013409E02278303A092A04D80A214B4301349B18F6E7099323782E2B18D163782A2B09D1059B02341A1D1B680592002B1F
:405FC0000DDA01235B420AE0013400232278303A092A04D80A214B4301349B18F6E70793234F2178381C032200F0D4F9002806D0C71B2B684020B8401843286001342178CF
:406000001C480622671C297600F0C4F9002812D0194B002B06D1059B0722073393430833059314E005AB00930398291C321C134B00E000BF07E005AB00930398291C321C2F
:406040000E4B00F091F804900499013104D06A69049953186B6143E7B3895A0601D40B9801E0012040421FB0F0BDC0462E710000347100003871000000000000E15D000001
:40608000F7B5151C01930A698B68061C0C1C934200DA131C221C2B6043321278002A01D001332B602068800602D52B6802332B60216806270F401FD0231C43331B785A1E73
:4060C0009341226892061FD5E11840313020C870211C5A1C45310978A21840320233D17012E0221C301C019919320123089FB847013011D0009F01370097E0682968009F55
:40610000431A9F42EDDBD7E7221C301C01994332089FB847013002D10120404223E0206806212B68E26801400025042903D1D51AEB43DB171D40A26823699A4201DDD31A16
:40614000ED1800270097009FAF420BDA221C301C01991A320123089FB8470130DCD0009F0137EFE70020FEBDF0B50D1C8BB0433506920590079304950B7E0C1C109A6E2B73
:4061800000D1A7E011D8632B22D009D8002B00D1B0E0582B00D0C0E045310B707B4D4EE0642B1CD0692B1AD0B7E0732B00D1A5E009D86F2B29D0702B00D0AEE00E6820232D
:4061C00033430B6036E0752B1FD0782B32D0A4E013680D1C191D423511601B689FE0216813680E0603D5191D11601E6805E04806F9D5191D116000215E5E644B002E3BDA98
:40620000049D2D2276422A7036E0216813680E0603D5191D11601E6804E04806F9D5191D1E881160594B227E039308276F2A1ED00A271CE0231C78214533554D19701168EB
:406240002368081D039510601E0601D50E6802E05806FBD50E88D90702D52022134323601027002E03D1226820239A432260231C002243331A7001E003930A276368A36042
:40628000002B03DB2568042295432560002E02D1049D002B0ED0049D301C391CFEF7FAFB0398013D435C301C2B70391CFEF7AEFB061EF1D1082F09D12168C90706D56268A7
:4062C00023699A4202DC013D30232B70049E731B23612AE0086813684969050604D5181D10601B68196005E04606F8D5181D10601B68198000232361049D16E01368191D9E
:4063000011601D68281CFFF74FFD63682061984200D923612069606004E0251C42352B7001232361049E00233370079E05980096211C09AA069BFFF7A3FE013002D10120A9
:40634000404221E02A1C059806992369079DA8470130F4D02668B60705D4099BE068984212DA181C10E00025E0680999431A9D42F3DA221C0598069919320123079EB0476D
:406380000130DCD00135EFE70BB0F0BD3F71000050710000C9B28218904204D003788B4202D00130F8E70020704770B5814201D300230CE08C18A042FAD28518131C013B3A
:4063C0000BD351426618F65C6918CE54F7E7934203D0CC5CC4540133F9E770BDF8B5061C0C1C151C002904D1111CFFF7FDFB041C18E0002A03D1FFF7AFFB2C1C12E000F091
:4064000013F8A8420ED2301C291CFFF7EDFB071E07D0211C2A1CFFF78EFB301C211CFFF79BFB3C1C201CF8BD04390B68181F002B02DAC8581B18181F70470000024B5822C6
:40644000012040421A60704728120020024B5822012040421A6070472812002008B10181B0B000840000000008B10181B0B000840000000008B10181B0B00084000000009C
:4064800008B10181B0B000840000000008B10181B0B000840000000080040181B0B0ABF00000000080060181B0B0ABF00000000080040181B0B0ABF00000000008B101815E
:4064C000B0B000840000000080010181B0B0AB100000000080040181B0B0ABF00000000008B10181B0B000840000000008B10181B0B0008400000000801A0181B0B0ABF044
:4065000000000000801A0181B0B0ABF00000000008B10181B0B000840000000008B10181B0B000840000000008B10181B0B000840000000008B10181B0B0008400000000C8
:40654000800C0181B0B0AB300000000008B10181B0B000840000000008B10181B0B000840000000008B10181B0B000840000000008B10181B0B000840000000008B101811B
:40658000B0B000840000000008B10181B0B000840000000008B10181B0B000840000000008B10181B0B000840000000008B10181B0B000840000000080050181B0B0AB1059
:4065C0000000000072B20181B0AB30800000000008B10181B0B000840000000008B10181B0B000840000000008B10181B0B0008400000000800A0181B0B0ABF00000000086
:4066000008B10181B0B000840000000008B10181B0B000840000000008B10181B0B00084000000003F010181B0AB10800000000008B10181B0B00084000000008006018129
:40664000B0B0ABF00000000008B10181B0B000840000000008B10181B0B000840000000000000000149DFF7FF4FDFF7F149DFF7FB0B0A8802C9DFF7FAB08B180489DFF7FFE
:40668000A908B180609DFF7FE0FDFF7F6C9DFF7F01000000709DFF7FB0B0A880809DFF7FD4FDFF7F849DFF7FD8FDFF7F889DFF7FDCFDFF7F8C9DFF7FA908B180B49DFF7F59
:4066C00001000000BC9DFF7FA908B180E09DFF7FAB08B180589EFF7FAB108080849FFF7FB0B0AA80C49FFF7FAB08B18070A0FF7F008402807CA0FF7FAB08B180C4A0FF7FEE
:40670000A908B1804CA1FF7FB0B0A88074A1FF7FB0B0AA80B4A1FF7FB0B0A880CCA1FF7F010000007CA2FF7FA908B180CCA2FF7F68FDFF7F18A4FF7FB0A9028064A4FF7F38
:40674000AB08B180E0A4FF7FA908B1804CA5FF7FB0B0A88058A5FF7FB0AA018020A6FF7FA908B180BCA6FF7F3CFDFF7F1CA8FF7F40FDFF7FF4A9FF7F0084028004AAFF7FFD
:406780003CFDFF7F50AAFF7FA908B18088AAFF7FB0B0AA8030ABFF7F30FDFF7F7CABFF7FAB08B18004ACFF7F2CFDFF7FD4ACFF7FB0AB02801CADFF7FAB08B18078AEFF7F82
:4067C000B0A8018088AEFF7FB0B0A880B0AEFF7F00840280D8AEFF7FB0A9028010AFFF7F00FDFF7F18AFFF7F0100000070AFFF7FFCFCFF7F7CAFFF7F01000000C0AFFF7F1B
:40680000B0B0A880D4AFFF7F0100000018B0FF7FB0A809804CB0FF7F0100000084B0FF7FD8FCFF7F38B1FF7FA908B18098B1FF7FD4FCFF7F9CB2FF7FB0AB2A809CB3FF7F2C
:40684000D0FCFF7FACB3FF7F0100000008B4FF7FCCFCFF7F38B4FF7FD0FCFF7F44B4FF7FD4FCFF7F5CB4FF7FAB108080A0B4FF7FB0A90A80F8B4FF7FB0A90C808CB5FF7F2C
:40688000AB108080DCB5FF7FB8FCFF7F7CB6FF7FB0B0A880A8B6FF7F0100000008B8FF7FACFCFF7F40B8FF7FB0B0A8802CB9FF7F0100000064B9FF7FAB08B18010BAFF7F3A
:4068C0000100000028BAFF7FAB08B180C8BAFF7FB0A9128054BBFF7F0100000024BCFF7F78FCFF7F24BCFF7F7CFCFF7F24BCFF7F80FCFF7F2CBCFF7F84FCFF7F38BCFF7F08
:40690000B0B0A88070BCFF7F0100000084BDFF7F00840280DCBDFF7F70FCFF7F20BFFF7FB0B0A880DCBFFF7FB0B0AA80F0BFFF7F0100000024C0FF7FB0AA018008C1FF7F24
:40694000B0AB028010C2FF7F010000001CC3FF7F44FCFF7F1CC3FF7F0100000004C4FF7F0084028048C4FF7F38FCFF7F48C4FF7F3CFCFF7F6CC4FF7F40FCFF7F8CC7FF7F6F
:4069800001000000A0C7FF7FB0AB04802CC9FF7F0100000090E2FF7FB0A9028028E3FF7FB0B0A88078E3FF7F0100000088E3FF7FA908B180BCE3FF7F0CFCFF7F88E4FF7F90
:4069C0000100000084E4FF7FAA3F3780CCE4FF7F00FCFF7FD8E4FF7FA908B18018E5FF7FFCFBFF7F2CE5FF7F0100000028E5FF7FF8FBFF7F30E5FF7F01000000C4E5FF7F15
:406A0000AA0DB28028E6FF7FECFBFF7F0CE9FF7FF0FBFF7F10E9FF7FF4FBFF7F14E9FF7FF8FBFF7F18E9FF7FFCFBFF7F74EBFF7F01000000E4ECFF7F00840480F4ECFF7F4A
:406A4000F0FBFF7FF4ECFF7FF4FBFF7FE4EFFF7FB0A8038004F0FF7FF0FBFF7F08F0FF7FF4FBFF7F14F0FF7F01000000000000000000000000000000000000000000000075
:406A80000D0A00006E616E00696E66006F7666002E00000000000000000000000000000069110000A10300007C3C3E5E2B3D3F2F5B5D3B2C2A225C002564000020256C750E
:406AC000000000000A0D00000000000000000000351600004D160000911700007D160000AD160000ED1600002F0000004C4F472E257300004C4F4725642E257300000000C8
:406B0000256C75002C2564004353560054696D65000000002C2200002200000042494E000000000000000000000000000000000000000000000000000000000000000000D6
:406B40000000000000000000000000000000000000000000000000000000000000000000000000000000000000000000000000000000000000000000000000000000000015
:406B800000000000000000000000000000000000000000000000000000000000000000000000000000000000000000000000000000000000000000000000000000000000D5
:406BC0000000000000000000000000000000000000000000000000000000000000000000000000000000000000000000000000000000000000000000000000000000000095
:406C0000636F6E6669672E74787400007261770063737600010101012D01012D01012001013A01013A0101007363686564756C696E675F656E61626C650000006368616E38
:406C40006E656C5F015F656E61626C656368616E6E656C5F015F6E616D65000073616D706C655F64656C61790000000066696C655F666F726D61740073746172745F746994
:406C80006D650000656E645F74696D65000000001F1C1F1E1F1E1F1F1E1F1E1F53756E004D6F6E005475650057656400546875004672690053617400142F0000142F0000A2
:406CC000442E0000522E0000142F0000142F0000142F0000142F0000142F0000142F0000142F0000142F0000142F0000142F0000142F0000142F0000142F0000142F0000F8
:406D0000602E0000142F0000142F0000A82E0000B62E0000142F0000C42E0000E02E0000142F0000142F0000142F0000142F0000142F0000142F0000142F0000142F00002A
:406D4000FC2E0000DE3000002A2F0000582F0000682F0000782F0000822F00008C2F0000962F0000A02F0000A82F0000DE300000DE300000DE300000DE300000DE300000A0
:406D8000DE300000DE300000B02F0000BE2F0000CE2F0000F02F0000FA2F00000A300000183000002230000032300000DE300000DE300000DE300000DE300000DE3000002A
:406DC000DE30000042300000483000004E3000005E3000007E300000883000009C300000BE300000466F756E6420612063617264210A0D0043617264206661696C656420E1
:406E00006F72206D697373696E67210A0D00000053746F7070696E67206C6F6767696E672E2E2E0A0D00000000300F40800200330F40000100400F400004000080320F400B
:406E4000687000008000000002000F4068300F4037310F4006320F4044330F4005400F400E410F4002600F40810D830F0102030D0402060D088D0A400D030E800F0C104D5A
:406E80001280141215091664170618CD19051B0A1C101E6020CD24CD28722A082C012E32310F320F348036703A883B023E10405449FF4AFF4BFF4F015018544058045904C0
:406EC0005A045B045D095F016040624064406540668068806A806C806E808201850E8C028D238F04920193109402950497399802A505A73AB001B202B30FB601B730B9082B
:406F0000BE05C045C5ECC602C807C9FFCAFFCBFFCD83CE03CF01D018D280D401D804D904DA04DB04DC09DD99DF01E040E240E440E540E680E880EA80EC80EE8000800118FF
:406F40000440064009080A650D080E080F8010101141120819081A011B101E801F8421012202250427022F2032183320360C3702384039423C403D084280464048024D0681
:406F80004F80568057405D065E8062906320740276408F02C097C27FC40FCA40CCC6CE59D081D218D6D0D80EE21033013F04540959045B045F010040011908090A63102043
:406FC0001209130119881B20204821042218272028993020320933403808391040C04104432048444A814B044C044D20500452115DA25F0462026540682069116A446B40A8
:4070000071807301810885408724881089828B208E01920193089440951196649C109E10A202A440A688AF80C00FC20DC40FCA0FCC0FCE06D007D20CD6F0D811E010521085
:407040006F208E20D420DA80040852205301830186108C049E10A220AF20C020D4A0E240E620EE101001110184000000018200008002041807003800041880000A9C1003F4
:4070800000180002041A000084330044841A000056C109386018000200137FE0800F080008000028000050006304200005DEF0BC3BFFFFFF2200F008040000000000022C0A
:4070C00004040404000000010000C00040011011C00100114001400100000000000000000000000000000000030405060708090A0B0C0E0F101112131415161718191B1C9D
:407100001D1E1F2021222325262728292A2B2E2F303132333435000000000000001000000020000000300000000102734300232D302B2000686C4C00656667454647003093
:40714000313233343536373839414243444546003031323334353637383961626364656600000000F8B5C046F8BC08BC9E46704741030000F11B000029240000B9320000ED
:4071800051330000F8B5C046F8BC08BC9E46704719030000A8710000C8000020E8000000801000000000000000000000FFFFFFFF02000000E803000053656E736F7220313C
:4071C00000000000000000000000000053656E736F72203200000000000000000000000053656E736F72203300000000000000000000000053656E736F7220340000000028
:4072000000000000000000000400000076302E3100000000301200200000C05D80BB000030000000006CDC0204040400000000000000000000000000000000000000000005
