:400000000040002011000000990200009902000008B500F05BF9C04608B51222164B1A60302000F067FA154A154B1A6080229200144B1A60144B154A1A6088218901144A96
:400040001160144A1A6082221206134B1A608022D202124B1A604022114B1A604122114B1A600720104900F083FA072000F074FA00220E4B1A6008BD3000104006000080B3
:4000800004010B40000301400000014040FF00800403014041FF008008010B4000010B40280101400C010140990600000C020B4038B572B60024254D0CE063001B195B00CB
:4000C000EB1899881A8858880004104300F06AF90134E4B2012CF0D91C49081C0C30243100F044F91A4A1B4B1A6099231B041A4A13601A4A13601A4A13601A4B18780222EB
:40010000022101431970184908783C24A04314242043087018781621014319701349144B19608021134B19600F2313490B6013490B60134B1A601349134B1960134B1A60B5
:40014000FFF76AFF00F044F938BDC0467015000099EE00000003024010500F4020500F4030500F4000700F4001700F40B60D000008010440180104400002044018020440DA
:4001800000030440B10D0000080304401803044010B5064C2378002B07D1054B002B02D0044800E000BF0123237010BD88010020000000006415000008B5084B002B03D0EB
:4001C0000748084900E000BF07480368002B03D0064B002B00D0984708BDC04600000000641500008C010020C800002000000000F0B5474680B400F04DFB00F05BFB00F030
:400200002DFC00F00FF962B61E4D1F4C1F4F2B78002BFCD01E4E201C391C326800F094FD201C00F05BF9202398462380201C00F055F9201C391C726800F086FD201C00F0C7
:400240004DF943462380201C00F048F9201C391CB26800F079FD201C00F040F943462380201C00F03BF9F268201C391C00F06CFD201C00F033F9074800F030F90022014B2B
:400280001A70C4E7A4010020CC00002068150000CC0100206C150000FEE7C04608B5094B1B681818084A821A802A02DC054A106005E000F015FD0C23036001235B42181C1B
:4002C00008BDC0460C01002008020020F8B50F4F0F4E002412E031687368B568221C02E001C901C30432AA42FAD1F168221C01E010C304328A42FBD11036013F002FEAD1A9
:4003000000F0F4FCFFF774FFFEE7C046010000002417000038B5104B1A6801218A431A6000230E4C0E4D0F4808E0032B02D89A00515900E0211C9A00115001332F2BF4D944
:40034000FFF7B6FE0022084B1A60034B196801220A431A6038BDC04600001040990200000000000000000020C0000020F0B500220027FF239C4611E0BB00C658F3B264463A
:40038000A64308E054000C192578AD1964782C700132013BDBB2002BF4D10137052FEBD9F0BDC04608B50A1C002100F0C5FC08BD064B1B68002803D0802212061A4301E008
:4003C0005A005208014B1A607047C04680033A4008B50323074A1360074A13600F23074A1360074A13600022064B1A600120FFF7DFFF08BD300030403000314000033A403F
:4004000040033A40000E3F4008B500F01BF808BD034B1968802212060A431A607047C0460000254008B5064B1B78002B04D1FFF7EBFF0122024B1A70FFF7EAFF08BDC04656
:40044000A501002010B5134A134B1A600023134A13600121124A1160124A13480260072412480460124803601248016012490A60124A13600421124A1160124A1360124AAF
:400480001360124A1360124A1360124A1360124A136010BD0B00000200002540400025404800254007000080000325400403254010032540440025400002254004022540AE
:4004C00050002540880E2540C80E2540480F2540080F2540C80F2540880F254038B5051C002402E000F02EFB0134285D0028F9D138BDC04610B586B0041C00F03AFB0E4B34
:400500001B6800930D4B1B680193033C0C4B1B5D02930C4B1B68039304AA0B4B049300AB05930A4B1A600A490A4A11601B6800F024FB06B010BDC04608010B4000010B40A3
:400540008416000030001040B6EA00000800104017000080040010401F23184001238340181C014B1860704700E100E001BE704738B5041C0D1C1F2802D90020FFF7F6FFB4
:40058000A400024BE4182068256038BD4000002070B5041C0E1E032E02D90020FFF7E6FF1F2C02D90020FFF7E1FF03252540ED00063500F0DEFAA408A400064BE4182368B3
:4005C0000322AA409343AE40351C1D43256000F0D4FA70BD00E400E008B5034B1B7A584300F0BEFA08BDC04610010020044B1A68C0231B021A4201D0012000E0002070478E
:4006000000010B4008B500F0B4FA044B1968C02212020A431A6000F0B0FA08BD00010B4010B500F0A6FA084B1968084A11408024E4012143196019680A40802109020A43E5
:400640001A6000F09AFA10BD00010B40FF3FFFFF38B5051C00F08DFA041CFFF7C7FF002803D0FFF7DDFF012200E00022074B1D40074B1868074901400D431D60012A01D1F8
:40068000FFF7C0FF201C00F078FA38BD0404040010020B40FBFBFBFF10B5154B1B685A0706D5144BDB68002B04D09847042402E0002400E004240E4B1B685A0507D5802345
:4006C000DB001C430B4B1B69002B00D09847084B1B685A0307D58023DB021C43054B5B69002B00D09847201CFFF7B2FF10BDC04610020B40A8010020F8B510200321FFF75D
:4007000047FF10203D49FFF733FF0F223C4B1A603C4B1A683C4B1B68002B01DA3B4B00E03B4B1A43374B1A603A4A3B4B1A603B4A3B4B1A60C02212063A4B1A603A4B3B4AF9
:4007400013603B4A136000233A4A13603A4A136001223A4B1A603A4B19683A4A0A40802189050A431A600026374DDC239C01374F41E0B2005359191C2140A819007C0143AF
:40078000334812181160D90707D52A4B196880225202B240120C0A431A60B3002A4A9B58980707D5244B196880225202B240120C0A431A60B30024495B589A0502D5802267
:4007C000520001E080225201D80504D4730000212048195203E0530871001E480B521E4842431E495018391C00F018FA00B2B3001B4A98500136032EBBD9F8BDF5080000D2
:4008000020003A4000003A4080033A40E02E1010E02E00108000008004003A404D06B10918003A401C003A400200020010003A4014003A4028023A4038023A4018023A40A0
:4008400030003A40FEFFFFDFB4160000E40C000080003A40EC0100201027000072060000DC01002008B5094B1B68002B0CDB084A1368002BFCDB054B1968802212060A4339
:400880001A600A20FFF7A8FE08BDC04600003A4008023A4008B5064B1B78002B04D1FFF72BFF0122024B1A70FFF7DCFF08BDC046C0010020034B1968802252020A431A606B
:4008C0007047C04604003A4010B5041E032C02D90020FFF74BFE032C06D8A400044BE41820680004000C00E0002000B210BDC04680013A40F8B5504B1D680020FFF7E4FF93
:4009000084B20120FFF7E0FF86B20220FFF7DCFF87B20320FFF7D8FF80B248496418A4B2D9239B009C4204D9454B1A68454B9A4225D8424AB618B6B2D9239B009E4204D9BF
:400940003F4B5A683F4B9A421BD83C4BFF18BFB2D9239B009F4204D9394B9A68394B9A4211D8364C001980B2D9239B0098420CD9334BDA68334B9A4209D8042308E000234F
:4009800006E0012304E0022302E0042300E00323032B2FD81C1C9A0029495158294A914228D901219940284A11609B00002224495A5026490A7026495A50264B1B78002BC9
:4009C00006D10120404200F079F800F0ABF805E000F07AF8C043A4001D4BE0501D4A13780133DBB21370042B04D100F047F80122164B1A70124B1A6801321A60596801310D
:400A00005960986801309860DC680134DC600D4B9A4208D9994206D9984204D99C4202D900220C4B1A70FF220B4B1A600022064B1A60014B1D60F8BD10023A40B3F9FFFF4B
:400A4000F40100203075000000010440A4010020CC010020C101002030023A4080225202014B1A607047C04600E100E0024B197880220A431A70704770000F40024B197852
:400A80007F220A401A70704770000F40014B18707047C04683000F40014B1878C0B2704763000F40014B18607047C04680200F40014B18687047C04600210F40014B186004
:400AC0007047C04600200F40024B1B78024B18687047C04600000F4000210F4010B5082401E0FFF7E5FFFFF7D7FF0442F9D110BD10B501246442201CFFF7D4FF201CFFF785
:400B0000DDFF00F036F8064B197810220A431A7000F033F8FFF7E2FF0020FFF7B7FF10BD93000F4008B5064B1B78002B04D1FFF7DFFF0122024B1A70FFF798FF08BDC0469C
:400B4000C201002004491F220B681340082BFBD0024B18607047C04608022540400225400230800803D00138FDD1C046C046C0467047EFF3108072B6704780F31088704738
:400B8000002934D00123002210B488422CD301242407A14204D2814202D209011B01F8E7E400A14204D2814202D249005B00F8E7884201D3401A1A434C08A04202D3001B5E
:400BC0005C0822438C08A04202D3001B9C082243CC08A04202D3001BDC082243002803D01B0901D00909E3E7101C10BC7047002801D00020C04307B4024802A140180290A5
:400C000003BDC046D90000000029F0D003B5FFF7B9FF0EBC4243891A1847C046002941D010B4041C4C40A44601230022002900D54942002800D5404288422CD30124240774
:400C4000A14204D2814202D209011B01F8E7E400A14204D2814202D249005B00F8E7884201D3401A1A434C08A04202D3001B5C0822438C08A04202D3001B9C082243CC08E1
:400C8000A04202D3001BDC082243002803D01B0901D00909E3E7101C6446002C00D5404210BC7047002806D003DB0020C043400801E08020000607B4024802A14018029011
:400CC00003BDC046190000000029EBD003B5FFF7A7FF0EBC4243891A1847C0467047C046014B18687047C0468001002070B50E4B0E4D0024ED1AAD101E1CAC4204D0A3003F
:400D0000F35898470134F8E700F0FAFC084B094D0024ED1AAD101E1CAC4204D0A300F35898470134F8E770BD0C1700000C1700000C17000014170000031C8218934202D000
:400D400019700133FAE770470EB400B59CB01DAB04CB822202A992008A810A4A02908A604A6101225242CA81074A086110681D9A019300F06BF8029A002313701CB008BCB9
:400D800003B01847FFFFFF7F80010020F0B58D6885B0071C0C1C03920193AB4245D390228B89D20013423DD062690326564309692068F20F401A96190290021C01980132B5
:400DC00012187610964200D2161C381C5A050FD5311C00F02BFB051E13D0029A216900F0BAFAA289184B134080221343A38111E0321C00F06FFB051E0CD1381C216900F039
:400E0000CDFA0C233B60A389402213430120A381404217E0029B2561ED1825606661019DF61AA6600198A84200D2019D2A1C2068039900F099FAA2680020531BA360236851
:400E40005D19256005B0F0BD7FFBFFFFF0B59FB0039005938B890E1C171C19060FD53269002A0CD1402100F0E1FA30603061002803D103990C230B60C9E04023736106AD56
:400E800000236B6120236B763023AB763C1C2378002B03D1E21B029211D003E0252BF9D00134F4E70398311C3A1C029BFFF76EFF013000D1A6E06969029A8B186B612378FD
:400EC000002B00D19EE0012252426A606A4600235B3201342B60EB60AB601370AB654E4F2178381C052200F02BFA002807D0C71B2B680120B840184328600134EFE72B681A
:400F0000D90603D56A4620215B3211701A0703D56A462B215B32117022782A2A01D0099B0EE0059A111D12680591002A01DB099204E05242EA60022213432B60013409E044
:400F40002278303A092A04D80A214B4301349B18F6E7099323782E2B18D163782A2B09D1059B02341A1D1B680592002B0DDA01235B420AE0013400232278303A092A04D80E
:400F80000A214B4301349B18F6E70793234F2178381C032200F0D4F9002806D0C71B2B684020B84018432860013421781C480622671C297600F0C4F9002812D0194B002B68
:400FC00006D1059B0722073393430833059314E005AB00930398291C321C134B00E000BF07E005AB00930398291C321C0E4B00F091F804900499013104D06A6904995318D0
:401000006B6143E7B3895A0601D40B9801E0012040421FB0F0BDC046CA160000D0160000D4160000000000008D0D0000F7B5151C01930A698B68061C0C1C934200DA131C57
:40104000221C2B6043321278002A01D001332B602068800602D52B6802332B60216806270F401FD0231C43331B785A1E9341226892061FD5E11840313020C870211C5A1C73
:4010800045310978A21840320233D17012E0221C301C019919320123089FB847013011D0009F01370097E0682968009F431A9F42EDDBD7E7221C301C01994332089FB84771
:4010C000013002D10120404223E0206806212B68E26801400025042903D1D51AEB43DB171D40A26823699A4201DDD31AED1800270097009FAF420BDA221C301C01991A3202
:401100000123089FB8470130DCD0009F0137EFE70020FEBDF0B50D1C8BB0433506920590079304950B7E0C1C109A6E2B00D1A7E011D8632B22D009D8002B00D1B0E0582BFA
:4011400000D0C0E045310B707B4D4EE0642B1CD0692B1AD0B7E0732B00D1A5E009D86F2B29D0702B00D0AEE00E68202333430B6036E0752B1FD0782B32D0A4E013680D1C1B
:40118000191D423511601B689FE0216813680E0603D5191D11601E6805E04806F9D5191D116000215E5E644B002E3BDA049D2D2276422A7036E0216813680E0603D5191DFD
:4011C00011601E6804E04806F9D5191D1E881160594B227E039308276F2A1ED00A271CE0231C78214533554D197011682368081D039510601E0601D50E6802E05806FBD5C2
:401200000E88D90702D52022134323601027002E03D1226820239A432260231C002243331A7001E003930A276368A360002B03DB2568042295432560002E02D1049D002B24
:401240000ED0049D301C391CFFF7DEFC0398013D435C301C2B70391CFFF792FC061EF1D1082F09D12168C90706D5626823699A4202DC013D30232B70049E731B23612AE021
:40128000086813684969050604D5181D10601B68196005E04606F8D5181D10601B68198000232361049D16E01368191D11601D68281C00F047F963682061984200D9236171
:4012C0002069606004E0251C42352B7001232361049E00233370079E05980096211C09AA069BFFF7A3FE013002D10120404221E02A1C059806992369079DA8470130F4D020
:401300002668B60705D4099BE068984212DA181C10E00025E0680999431A9D42F3DA221C0598069919320123079EB0470130DCD00135EFE70BB0F0BDDB160000EC160000D2
:40134000C9B28218904204D003788B4202D00130F8E70020704710B50023934203D0CC5CC4540133F9E710BD70B5814201D300230CE08C18A042FAD28518131C013B0BD3FD
:4013800051426618F65C6918CE54F7E7934203D0CC5CC4540133F9E770BD000030B5002940D004390B68002B00DAC9181E4A1368141C002B02D14B60116033E099420FD270
:4013C00008680A189A4205D113685268C01808604A6000E04B60216024E08A4203D8131C5A68002AF9D11D685C198C420BD10968691858181960904214D114685268091960
:4014000019605A600EE08C4202D90C23036009E008680C18944203D114685268001908604A60596030BDC046C801002070B50323CD1C9D430835061C0C2D01D20C2501E0A2
:40144000002D3FDB8D423DD3204B1C681A1C211C002913D00868431B0DD40B2B02D90B60CC181EE08C4202D1636813601AE0486860600C1C16E00C1C4968E9E7144C2068D3
:40148000002803D1301C00F04BF82060301C291C00F046F8431C15D0C41C03239C4384420AD12560201C0B300722231D9043C31A0BD05A42E25008E0211A301C00F030F863
:4014C0000130EED10C233360002070BDC8010020C4010020F8B5061C0C1C151C002904D1111CFFF7A3FF041C18E0002A03D1FFF755FF2C1C12E000F02CF8A8420ED2301C70
:40150000291CFFF793FF071E07D0211C2A1CFFF722FF301C211CFFF741FF3C1C201CF8BD38B5074C0023051C081C2360FEF7B6FE431C03D12368002B00D02B6038BDC0462D
:40154000040200200023C25C0133002AFBD1581E704704390B68181F002B02DAC8581B18181F704700000000256C75000A0D000000300F40000400400F40000401000F40FB
:4015800028300F4007310F4032320F4013330F4002600F40830D405449FF4AFF4BFF4F01501852805A045B045D995F016040624064406540668068806A806C806E80C0513A
:4015C000C9FFCAFFCBFFCD83CE03CF01D018DA04DD09DF01E040E240E440E540E680E880EA80EC80EE804101460148024C027002D011D218405149FF4AFF4BFF4D834E038B
:401600004F0150185A045D095F016040624064406540668068806A806C806E808E01AE01B601BE40C054C5ECC720C823C9FFCAFFCBFFCD83CE03CF01D018D401D804DA0464
:40164000DB04DD99DF01E040E240E440E540E680E880EA80EC80EE8002011002194041014601480249054C0251015201594595029E01A002C001C401D011D218D60B02016B
:4016800011010000030405060708090A0B0C0E0F101112131415161718191B1C1D1E1F2021222325262728292A2B2E2F303132333435000002000000020000000200000022
:4016C00002000000000102034300232D302B2000686C4C006566674546470030313233343536373839414243444546003031323334353637383961626364656600000000AC
:40170000F8B5C046F8BC08BC9E467047B901000015030000F8B5C046F8BC08BC9E4670479101000038170000C8000020C00000008000000000000000000000002000000022
:40174000000000000000000000000000000000000000000000000000000000000000000000000000000000000000000000000000000000000000000000000000080200203F
:401780000000C05D80BB000030000000006CDC020000000000000000000000000000000000000000000000000000000000000000C816000000000000000000000000000079
:4017C00000000000000000000000000000000000000000000000000000000000000000000000000000000000000000000000000020010020000000000000000000000000A8
:4018000000000000000000000000000000000000000000000000000000000000000000000000000000000000000000000000000000000000000000000000000000000000A8
:401840000000000000000000000000000000000000000000000000000000000000000000000000000000000000000000000000000000000000000000000000000000000068
:401880000000000000000000000000000000000000000000000000000000000000000000000000000000000000000000000000000000000000000000000000000000000028
:4018C00000000000000000000000000000000000000000000000000000000000000000000000000000000000000000000000000000000000000000000000000000000000E8
:020000040001F9
:0200000490303A
:02000000558722
:0200000490402A
:4000000000000000000000000000000000000000000000000000000000000000000000000000000000000000000000000000000000000000000000000000000000000000C0
:400040000000000000000000000000000000000000000000000000000000000000000000000000000000000000000000000000000000000000000000000000000000000080
:0200000490501A
:0C0000000002112D11A10001113467282D
:0200000490600A
:0100000001FE
:00000001FF